{
  "contractName": "AdoptionCenter",
  "abi": [
    {
      "inputs": [
        {
          "internalType": "address",
          "name": "marketplaceAddress",
          "type": "address"
        }
      ],
      "stateMutability": "nonpayable",
      "type": "constructor"
    },
    {
      "anonymous": false,
      "inputs": [
        {
          "indexed": true,
          "internalType": "address",
          "name": "owner",
          "type": "address"
        },
        {
          "indexed": true,
          "internalType": "address",
          "name": "approved",
          "type": "address"
        },
        {
          "indexed": true,
          "internalType": "uint256",
          "name": "tokenId",
          "type": "uint256"
        }
      ],
      "name": "Approval",
      "type": "event"
    },
    {
      "anonymous": false,
      "inputs": [
        {
          "indexed": true,
          "internalType": "address",
          "name": "owner",
          "type": "address"
        },
        {
          "indexed": true,
          "internalType": "address",
          "name": "operator",
          "type": "address"
        },
        {
          "indexed": false,
          "internalType": "bool",
          "name": "approved",
          "type": "bool"
        }
      ],
      "name": "ApprovalForAll",
      "type": "event"
    },
    {
      "anonymous": false,
      "inputs": [
        {
          "indexed": true,
          "internalType": "address",
          "name": "buyer",
          "type": "address"
        },
        {
          "indexed": false,
          "internalType": "uint256",
          "name": "devDoggieId",
          "type": "uint256"
        }
      ],
      "name": "DevDoggieAdopted",
      "type": "event"
    },
    {
      "anonymous": false,
      "inputs": [
        {
          "indexed": true,
          "internalType": "address",
          "name": "previousOwner",
          "type": "address"
        },
        {
          "indexed": true,
          "internalType": "address",
          "name": "newOwner",
          "type": "address"
        }
      ],
      "name": "OwnershipTransferred",
      "type": "event"
    },
    {
      "anonymous": false,
      "inputs": [
        {
          "indexed": true,
          "internalType": "address",
          "name": "from",
          "type": "address"
        },
        {
          "indexed": true,
          "internalType": "address",
          "name": "to",
          "type": "address"
        },
        {
          "indexed": true,
          "internalType": "uint256",
          "name": "tokenId",
          "type": "uint256"
        }
      ],
      "name": "Transfer",
      "type": "event"
    },
    {
      "inputs": [
        {
          "internalType": "uint256",
          "name": "",
          "type": "uint256"
        }
      ],
      "name": "adoptedDevDoggies",
      "outputs": [
        {
          "internalType": "uint256",
          "name": "tokenId",
          "type": "uint256"
        },
        {
          "internalType": "address",
          "name": "owner",
          "type": "address"
        },
        {
          "internalType": "uint256",
          "name": "devDoggieType",
          "type": "uint256"
        },
        {
          "internalType": "string",
          "name": "firstName",
          "type": "string"
        },
        {
          "internalType": "string",
          "name": "lastName",
          "type": "string"
        }
      ],
      "stateMutability": "view",
      "type": "function"
    },
    {
      "inputs": [
        {
          "internalType": "address",
          "name": "to",
          "type": "address"
        },
        {
          "internalType": "uint256",
          "name": "tokenId",
          "type": "uint256"
        }
      ],
      "name": "approve",
      "outputs": [],
      "stateMutability": "nonpayable",
      "type": "function"
    },
    {
      "inputs": [
        {
          "internalType": "address",
          "name": "owner",
          "type": "address"
        }
      ],
      "name": "balanceOf",
      "outputs": [
        {
          "internalType": "uint256",
          "name": "",
          "type": "uint256"
        }
      ],
      "stateMutability": "view",
      "type": "function"
    },
    {
      "inputs": [
        {
          "internalType": "uint256",
          "name": "tokenId",
          "type": "uint256"
        }
      ],
      "name": "getApproved",
      "outputs": [
        {
          "internalType": "address",
          "name": "",
          "type": "address"
        }
      ],
      "stateMutability": "view",
      "type": "function"
    },
    {
      "inputs": [
        {
          "internalType": "address",
          "name": "owner",
          "type": "address"
        },
        {
          "internalType": "address",
          "name": "operator",
          "type": "address"
        }
      ],
      "name": "isApprovedForAll",
      "outputs": [
        {
          "internalType": "bool",
          "name": "",
          "type": "bool"
        }
      ],
      "stateMutability": "view",
      "type": "function"
    },
    {
      "inputs": [],
      "name": "name",
      "outputs": [
        {
          "internalType": "string",
          "name": "",
          "type": "string"
        }
      ],
      "stateMutability": "view",
      "type": "function"
    },
    {
      "inputs": [],
      "name": "owner",
      "outputs": [
        {
          "internalType": "address",
          "name": "",
          "type": "address"
        }
      ],
      "stateMutability": "view",
      "type": "function"
    },
    {
      "inputs": [
        {
          "internalType": "uint256",
          "name": "tokenId",
          "type": "uint256"
        }
      ],
      "name": "ownerOf",
      "outputs": [
        {
          "internalType": "address",
          "name": "",
          "type": "address"
        }
      ],
      "stateMutability": "view",
      "type": "function"
    },
    {
      "inputs": [],
      "name": "renounceOwnership",
      "outputs": [],
      "stateMutability": "nonpayable",
      "type": "function"
    },
    {
      "inputs": [
        {
          "internalType": "address",
          "name": "from",
          "type": "address"
        },
        {
          "internalType": "address",
          "name": "to",
          "type": "address"
        },
        {
          "internalType": "uint256",
          "name": "tokenId",
          "type": "uint256"
        }
      ],
      "name": "safeTransferFrom",
      "outputs": [],
      "stateMutability": "nonpayable",
      "type": "function"
    },
    {
      "inputs": [
        {
          "internalType": "address",
          "name": "from",
          "type": "address"
        },
        {
          "internalType": "address",
          "name": "to",
          "type": "address"
        },
        {
          "internalType": "uint256",
          "name": "tokenId",
          "type": "uint256"
        },
        {
          "internalType": "bytes",
          "name": "_data",
          "type": "bytes"
        }
      ],
      "name": "safeTransferFrom",
      "outputs": [],
      "stateMutability": "nonpayable",
      "type": "function"
    },
    {
      "inputs": [
        {
          "internalType": "address",
          "name": "operator",
          "type": "address"
        },
        {
          "internalType": "bool",
          "name": "approved",
          "type": "bool"
        }
      ],
      "name": "setApprovalForAll",
      "outputs": [],
      "stateMutability": "nonpayable",
      "type": "function"
    },
    {
      "inputs": [
        {
          "internalType": "bytes4",
          "name": "interfaceId",
          "type": "bytes4"
        }
      ],
      "name": "supportsInterface",
      "outputs": [
        {
          "internalType": "bool",
          "name": "",
          "type": "bool"
        }
      ],
      "stateMutability": "view",
      "type": "function"
    },
    {
      "inputs": [],
      "name": "symbol",
      "outputs": [
        {
          "internalType": "string",
          "name": "",
          "type": "string"
        }
      ],
      "stateMutability": "view",
      "type": "function"
    },
    {
      "inputs": [
        {
          "internalType": "uint256",
          "name": "tokenId",
          "type": "uint256"
        }
      ],
      "name": "tokenURI",
      "outputs": [
        {
          "internalType": "string",
          "name": "",
          "type": "string"
        }
      ],
      "stateMutability": "view",
      "type": "function"
    },
    {
      "inputs": [
        {
          "internalType": "address",
          "name": "from",
          "type": "address"
        },
        {
          "internalType": "address",
          "name": "to",
          "type": "address"
        },
        {
          "internalType": "uint256",
          "name": "tokenId",
          "type": "uint256"
        }
      ],
      "name": "transferFrom",
      "outputs": [],
      "stateMutability": "nonpayable",
      "type": "function"
    },
    {
      "inputs": [
        {
          "internalType": "address",
          "name": "newOwner",
          "type": "address"
        }
      ],
      "name": "transferOwnership",
      "outputs": [],
      "stateMutability": "nonpayable",
      "type": "function"
    },
    {
      "inputs": [
        {
          "internalType": "uint256",
          "name": "_devDoggieType",
          "type": "uint256"
        },
        {
          "internalType": "string",
          "name": "_firstName",
          "type": "string"
        },
        {
          "internalType": "string",
          "name": "_lastName",
          "type": "string"
        }
      ],
      "name": "adoptDevDoggie",
      "outputs": [
        {
          "internalType": "uint256",
          "name": "",
          "type": "uint256"
        }
      ],
      "stateMutability": "payable",
      "type": "function"
    },
    {
      "inputs": [],
      "name": "getMyDevDoggies",
      "outputs": [
        {
          "components": [
            {
              "internalType": "uint256",
              "name": "tokenId",
              "type": "uint256"
            },
            {
              "internalType": "address",
              "name": "owner",
              "type": "address"
            },
            {
              "internalType": "uint256",
              "name": "devDoggieType",
              "type": "uint256"
            },
            {
              "internalType": "string",
              "name": "firstName",
              "type": "string"
            },
            {
              "internalType": "string",
              "name": "lastName",
              "type": "string"
            }
          ],
          "internalType": "struct AdoptionCenter.DevDoggie[]",
          "name": "",
          "type": "tuple[]"
        }
      ],
      "stateMutability": "view",
      "type": "function"
    },
    {
      "inputs": [
        {
          "internalType": "uint256",
          "name": "_tokenId",
          "type": "uint256"
        }
      ],
      "name": "getDevDoggie",
      "outputs": [
        {
          "internalType": "uint256",
          "name": "_devDoggieType",
          "type": "uint256"
        },
        {
          "internalType": "string",
          "name": "_devDoggieFirstName",
          "type": "string"
        },
        {
          "internalType": "string",
          "name": "_devDoggieLastName",
          "type": "string"
        }
      ],
      "stateMutability": "view",
      "type": "function"
    },
    {
      "inputs": [],
      "name": "getCurrentAdoptionFee",
      "outputs": [
        {
          "internalType": "uint256",
          "name": "adoptionFee",
          "type": "uint256"
        }
      ],
      "stateMutability": "view",
      "type": "function"
    }
  ],
  "bytecode": "0x608060405266470de4df820000600a553480156200001c57600080fd5b50604051620040f3380380620040f383398181016040528101906200004291906200033a565b6040518060400160405280600e81526020017f446576446f67676965546f6b656e0000000000000000000000000000000000008152506040518060400160405280600481526020017f5441524f000000000000000000000000000000000000000000000000000000008152508160009080519060200190620000c692919062000220565b508060019080519060200190620000df92919062000220565b50505060016006819055506200010a620000fe6200015260201b60201c565b6200015a60201b60201c565b80600960006101000a81548173ffffffffffffffffffffffffffffffffffffffff021916908373ffffffffffffffffffffffffffffffffffffffff16021790555050620003d1565b600033905090565b6000600760009054906101000a900473ffffffffffffffffffffffffffffffffffffffff16905081600760006101000a81548173ffffffffffffffffffffffffffffffffffffffff021916908373ffffffffffffffffffffffffffffffffffffffff1602179055508173ffffffffffffffffffffffffffffffffffffffff168173ffffffffffffffffffffffffffffffffffffffff167f8be0079c531659141344cd1fd0a4f28419497f9722a3daafe3b4186f6b6457e060405160405180910390a35050565b8280546200022e906200039b565b90600052602060002090601f0160209004810192826200025257600085556200029e565b82601f106200026d57805160ff19168380011785556200029e565b828001600101855582156200029e579182015b828111156200029d57825182559160200191906001019062000280565b5b509050620002ad9190620002b1565b5090565b5b80821115620002cc576000816000905550600101620002b2565b5090565b600080fd5b600073ffffffffffffffffffffffffffffffffffffffff82169050919050565b60006200030282620002d5565b9050919050565b6200031481620002f5565b81146200032057600080fd5b50565b600081519050620003348162000309565b92915050565b600060208284031215620003535762000352620002d0565b5b6000620003638482850162000323565b91505092915050565b7f4e487b7100000000000000000000000000000000000000000000000000000000600052602260045260246000fd5b60006002820490506001821680620003b457607f821691505b60208210811415620003cb57620003ca6200036c565b5b50919050565b613d1280620003e16000396000f3fe60806040526004361061012a5760003560e01c8063715018a6116100ab578063b88d4fde1161006f578063b88d4fde146103fb578063c87b56dd14610424578063df229e9514610461578063e985e9c51461048c578063f2fde38b146104c9578063f497abad146104f25761012a565b8063715018a6146103355780638da5cb5b1461034c57806395d89b4114610377578063a22cb465146103a2578063b427cc2e146103cb5761012a565b806323b872dd116100f257806323b872dd1461023e57806342842e0e146102675780636352211e146102905780636f9b9168146102cd57806370a08231146102f85761012a565b806301ffc9a71461012f57806306fdde031461016c578063081812fc14610197578063095ea7b3146101d457806320c7a272146101fd575b600080fd5b34801561013b57600080fd5b5061015660048036038101906101519190612574565b610531565b60405161016391906125bc565b60405180910390f35b34801561017857600080fd5b50610181610613565b60405161018e9190612670565b60405180910390f35b3480156101a357600080fd5b506101be60048036038101906101b991906126c8565b6106a5565b6040516101cb9190612736565b60405180910390f35b3480156101e057600080fd5b506101fb60048036038101906101f6919061277d565b61072a565b005b34801561020957600080fd5b50610224600480360381019061021f91906126c8565b610842565b6040516102359594939291906127cc565b60405180910390f35b34801561024a57600080fd5b506102656004803603810190610260919061282d565b6109a8565b005b34801561027357600080fd5b5061028e6004803603810190610289919061282d565b610a08565b005b34801561029c57600080fd5b506102b760048036038101906102b291906126c8565b610a28565b6040516102c49190612736565b60405180910390f35b3480156102d957600080fd5b506102e2610ada565b6040516102ef9190612880565b60405180910390f35b34801561030457600080fd5b5061031f600480360381019061031a919061289b565b610ae4565b60405161032c9190612880565b60405180910390f35b34801561034157600080fd5b5061034a610b9c565b005b34801561035857600080fd5b50610361610c24565b60405161036e9190612736565b60405180910390f35b34801561038357600080fd5b5061038c610c4e565b6040516103999190612670565b60405180910390f35b3480156103ae57600080fd5b506103c960048036038101906103c491906128f4565b610ce0565b005b6103e560048036038101906103e09190612a69565b610cf6565b6040516103f29190612880565b60405180910390f35b34801561040757600080fd5b50610422600480360381019061041d9190612b95565b611022565b005b34801561043057600080fd5b5061044b600480360381019061044691906126c8565b611084565b6040516104589190612670565b60405180910390f35b34801561046d57600080fd5b5061047661112b565b6040516104839190612dbf565b60405180910390f35b34801561049857600080fd5b506104b360048036038101906104ae9190612de1565b6114cc565b6040516104c091906125bc565b60405180910390f35b3480156104d557600080fd5b506104f060048036038101906104eb919061289b565b611560565b005b3480156104fe57600080fd5b50610519600480360381019061051491906126c8565b611658565b60405161052893929190612e21565b60405180910390f35b60007f80ac58cd000000000000000000000000000000000000000000000000000000007bffffffffffffffffffffffffffffffffffffffffffffffffffffffff1916827bffffffffffffffffffffffffffffffffffffffffffffffffffffffff191614806105fc57507f5b5e139f000000000000000000000000000000000000000000000000000000007bffffffffffffffffffffffffffffffffffffffffffffffffffffffff1916827bffffffffffffffffffffffffffffffffffffffffffffffffffffffff1916145b8061060c575061060b826117b6565b5b9050919050565b60606000805461062290612e95565b80601f016020809104026020016040519081016040528092919081815260200182805461064e90612e95565b801561069b5780601f106106705761010080835404028352916020019161069b565b820191906000526020600020905b81548152906001019060200180831161067e57829003601f168201915b5050505050905090565b60006106b082611820565b6106ef576040517f08c379a00000000000000000000000000000000000000000000000000000000081526004016106e690612f39565b60405180910390fd5b6004600083815260200190815260200160002060009054906101000a900473ffffffffffffffffffffffffffffffffffffffff169050919050565b600061073582610a28565b90508073ffffffffffffffffffffffffffffffffffffffff168373ffffffffffffffffffffffffffffffffffffffff1614156107a6576040517f08c379a000000000000000000000000000000000000000000000000000000000815260040161079d90612fcb565b60405180910390fd5b8073ffffffffffffffffffffffffffffffffffffffff166107c561188c565b73ffffffffffffffffffffffffffffffffffffffff1614806107f457506107f3816107ee61188c565b6114cc565b5b610833576040517f08c379a000000000000000000000000000000000000000000000000000000000815260040161082a9061305d565b60405180910390fd5b61083d8383611894565b505050565b600e6020528060005260406000206000915090508060000154908060010160009054906101000a900473ffffffffffffffffffffffffffffffffffffffff169080600201549080600301805461089790612e95565b80601f01602080910402602001604051908101604052809291908181526020018280546108c390612e95565b80156109105780601f106108e557610100808354040283529160200191610910565b820191906000526020600020905b8154815290600101906020018083116108f357829003601f168201915b50505050509080600401805461092590612e95565b80601f016020809104026020016040519081016040528092919081815260200182805461095190612e95565b801561099e5780601f106109735761010080835404028352916020019161099e565b820191906000526020600020905b81548152906001019060200180831161098157829003601f168201915b5050505050905085565b6109b96109b361188c565b8261194d565b6109f8576040517f08c379a00000000000000000000000000000000000000000000000000000000081526004016109ef906130ef565b60405180910390fd5b610a03838383611a2b565b505050565b610a2383838360405180602001604052806000815250611022565b505050565b6000806002600084815260200190815260200160002060009054906101000a900473ffffffffffffffffffffffffffffffffffffffff169050600073ffffffffffffffffffffffffffffffffffffffff168173ffffffffffffffffffffffffffffffffffffffff161415610ad1576040517f08c379a0000000000000000000000000000000000000000000000000000000008152600401610ac890613181565b60405180910390fd5b80915050919050565b6000600a54905090565b60008073ffffffffffffffffffffffffffffffffffffffff168273ffffffffffffffffffffffffffffffffffffffff161415610b55576040517f08c379a0000000000000000000000000000000000000000000000000000000008152600401610b4c90613213565b60405180910390fd5b600360008373ffffffffffffffffffffffffffffffffffffffff1673ffffffffffffffffffffffffffffffffffffffff168152602001908152602001600020549050919050565b610ba461188c565b73ffffffffffffffffffffffffffffffffffffffff16610bc2610c24565b73ffffffffffffffffffffffffffffffffffffffff1614610c18576040517f08c379a0000000000000000000000000000000000000000000000000000000008152600401610c0f9061327f565b60405180910390fd5b610c226000611c87565b565b6000600760009054906101000a900473ffffffffffffffffffffffffffffffffffffffff16905090565b606060018054610c5d90612e95565b80601f0160208091040260200160405190810160405280929190818152602001828054610c8990612e95565b8015610cd65780601f10610cab57610100808354040283529160200191610cd6565b820191906000526020600020905b815481529060010190602001808311610cb957829003601f168201915b5050505050905090565b610cf2610ceb61188c565b8383611d4d565b5050565b600060026006541415610d3e576040517f08c379a0000000000000000000000000000000000000000000000000000000008152600401610d35906132eb565b60405180910390fd5b600260068190555060008390506000839050600160ff1682511015610d98576040517f08c379a0000000000000000000000000000000000000000000000000000000008152600401610d8f90613357565b60405180910390fd5b604060ff1682511015610de0576040517f08c379a0000000000000000000000000000000000000000000000000000000008152600401610dd7906133c3565b60405180910390fd5b600160ff1681511015610e28576040517f08c379a0000000000000000000000000000000000000000000000000000000008152600401610e1f9061342f565b60405180910390fd5b604060ff1681511015610e70576040517f08c379a0000000000000000000000000000000000000000000000000000000008152600401610e679061349b565b60405180910390fd5b600a54341015610eb5576040517f08c379a0000000000000000000000000000000000000000000000000000000008152600401610eac90613507565b60405180910390fd5b610ebf6008611eba565b6000610ecb6008611ed0565b9050610ed73382611ede565b6040518060a001604052808281526020013373ffffffffffffffffffffffffffffffffffffffff16815260200188815260200187815260200186815250600e60008381526020019081526020016000206000820151816000015560208201518160010160006101000a81548173ffffffffffffffffffffffffffffffffffffffff021916908373ffffffffffffffffffffffffffffffffffffffff160217905550604082015181600201556060820151816003019080519060200190610f9e929190612420565b506080820151816004019080519060200190610fbb929190612420565b509050503373ffffffffffffffffffffffffffffffffffffffff167fddbdd9e922189839dbb4e0298f2ef222a37b3766e39cf15f922b6c8574638cef826040516110059190612880565b60405180910390a280935050505060016006819055509392505050565b61103361102d61188c565b8361194d565b611072576040517f08c379a0000000000000000000000000000000000000000000000000000000008152600401611069906130ef565b60405180910390fd5b61107e848484846120ac565b50505050565b606061108f82611820565b6110ce576040517f08c379a00000000000000000000000000000000000000000000000000000000081526004016110c590613599565b60405180910390fd5b60006110d8612108565b905060008151116110f85760405180602001604052806000815250611123565b806111028461211f565b6040516020016111139291906135f5565b6040516020818303038152906040525b915050919050565b606060006111396008611ed0565b905060008060005b838110156111e2573373ffffffffffffffffffffffffffffffffffffffff16600e60006001846111719190613648565b815260200190815260200160002060010160009054906101000a900473ffffffffffffffffffffffffffffffffffffffff1673ffffffffffffffffffffffffffffffffffffffff1614156111cf576001836111cc9190613648565b92505b80806111da9061369e565b915050611141565b5060008267ffffffffffffffff8111156111ff576111fe61293e565b5b60405190808252806020026020018201604052801561123857816020015b6112256124a6565b81526020019060019003908161121d5790505b50905060005b848110156114c1573373ffffffffffffffffffffffffffffffffffffffff16600e600060018461126e9190613648565b815260200190815260200160002060010160009054906101000a900473ffffffffffffffffffffffffffffffffffffffff1673ffffffffffffffffffffffffffffffffffffffff1614156114ae5760006001826112cb9190613648565b90506000600e60008381526020019081526020016000209050806040518060a0016040529081600082015481526020016001820160009054906101000a900473ffffffffffffffffffffffffffffffffffffffff1673ffffffffffffffffffffffffffffffffffffffff1673ffffffffffffffffffffffffffffffffffffffff1681526020016002820154815260200160038201805461136a90612e95565b80601f016020809104026020016040519081016040528092919081815260200182805461139690612e95565b80156113e35780601f106113b8576101008083540402835291602001916113e3565b820191906000526020600020905b8154815290600101906020018083116113c657829003601f168201915b505050505081526020016004820180546113fc90612e95565b80601f016020809104026020016040519081016040528092919081815260200182805461142890612e95565b80156114755780601f1061144a57610100808354040283529160200191611475565b820191906000526020600020905b81548152906001019060200180831161145857829003601f168201915b505050505081525050848681518110611491576114906136e7565b5b60200260200101819052506001856114a99190613648565b945050505b80806114b99061369e565b91505061123e565b508094505050505090565b6000600560008473ffffffffffffffffffffffffffffffffffffffff1673ffffffffffffffffffffffffffffffffffffffff16815260200190815260200160002060008373ffffffffffffffffffffffffffffffffffffffff1673ffffffffffffffffffffffffffffffffffffffff16815260200190815260200160002060009054906101000a900460ff16905092915050565b61156861188c565b73ffffffffffffffffffffffffffffffffffffffff16611586610c24565b73ffffffffffffffffffffffffffffffffffffffff16146115dc576040517f08c379a00000000000000000000000000000000000000000000000000000000081526004016115d39061327f565b60405180910390fd5b600073ffffffffffffffffffffffffffffffffffffffff168173ffffffffffffffffffffffffffffffffffffffff16141561164c576040517f08c379a000000000000000000000000000000000000000000000000000000000815260040161164390613788565b60405180910390fd5b61165581611c87565b50565b6000606080600b6000858152602001908152602001600020549250600c6000858152602001908152602001600020805461169190612e95565b80601f01602080910402602001604051908101604052809291908181526020018280546116bd90612e95565b801561170a5780601f106116df5761010080835404028352916020019161170a565b820191906000526020600020905b8154815290600101906020018083116116ed57829003601f168201915b50505050509150600d6000858152602001908152602001600020805461172f90612e95565b80601f016020809104026020016040519081016040528092919081815260200182805461175b90612e95565b80156117a85780601f1061177d576101008083540402835291602001916117a8565b820191906000526020600020905b81548152906001019060200180831161178b57829003601f168201915b505050505090509193909250565b60007f01ffc9a7000000000000000000000000000000000000000000000000000000007bffffffffffffffffffffffffffffffffffffffffffffffffffffffff1916827bffffffffffffffffffffffffffffffffffffffffffffffffffffffff1916149050919050565b60008073ffffffffffffffffffffffffffffffffffffffff166002600084815260200190815260200160002060009054906101000a900473ffffffffffffffffffffffffffffffffffffffff1673ffffffffffffffffffffffffffffffffffffffff1614159050919050565b600033905090565b816004600083815260200190815260200160002060006101000a81548173ffffffffffffffffffffffffffffffffffffffff021916908373ffffffffffffffffffffffffffffffffffffffff160217905550808273ffffffffffffffffffffffffffffffffffffffff1661190783610a28565b73ffffffffffffffffffffffffffffffffffffffff167f8c5be1e5ebec7d5bd14f71427d1e84f3dd0314c0f7b2291e5b200ac8c7c3b92560405160405180910390a45050565b600061195882611820565b611997576040517f08c379a000000000000000000000000000000000000000000000000000000000815260040161198e9061381a565b60405180910390fd5b60006119a283610a28565b90508073ffffffffffffffffffffffffffffffffffffffff168473ffffffffffffffffffffffffffffffffffffffff161480611a1157508373ffffffffffffffffffffffffffffffffffffffff166119f9846106a5565b73ffffffffffffffffffffffffffffffffffffffff16145b80611a225750611a2181856114cc565b5b91505092915050565b8273ffffffffffffffffffffffffffffffffffffffff16611a4b82610a28565b73ffffffffffffffffffffffffffffffffffffffff1614611aa1576040517f08c379a0000000000000000000000000000000000000000000000000000000008152600401611a98906138ac565b60405180910390fd5b600073ffffffffffffffffffffffffffffffffffffffff168273ffffffffffffffffffffffffffffffffffffffff161415611b11576040517f08c379a0000000000000000000000000000000000000000000000000000000008152600401611b089061393e565b60405180910390fd5b611b1c838383612280565b611b27600082611894565b6001600360008573ffffffffffffffffffffffffffffffffffffffff1673ffffffffffffffffffffffffffffffffffffffff1681526020019081526020016000206000828254611b77919061395e565b925050819055506001600360008473ffffffffffffffffffffffffffffffffffffffff1673ffffffffffffffffffffffffffffffffffffffff1681526020019081526020016000206000828254611bce9190613648565b92505081905550816002600083815260200190815260200160002060006101000a81548173ffffffffffffffffffffffffffffffffffffffff021916908373ffffffffffffffffffffffffffffffffffffffff160217905550808273ffffffffffffffffffffffffffffffffffffffff168473ffffffffffffffffffffffffffffffffffffffff167fddf252ad1be2c89b69c2b068fc378daa952ba7f163c4a11628f55a4df523b3ef60405160405180910390a4505050565b6000600760009054906101000a900473ffffffffffffffffffffffffffffffffffffffff16905081600760006101000a81548173ffffffffffffffffffffffffffffffffffffffff021916908373ffffffffffffffffffffffffffffffffffffffff1602179055508173ffffffffffffffffffffffffffffffffffffffff168173ffffffffffffffffffffffffffffffffffffffff167f8be0079c531659141344cd1fd0a4f28419497f9722a3daafe3b4186f6b6457e060405160405180910390a35050565b8173ffffffffffffffffffffffffffffffffffffffff168373ffffffffffffffffffffffffffffffffffffffff161415611dbc576040517f08c379a0000000000000000000000000000000000000000000000000000000008152600401611db3906139de565b60405180910390fd5b80600560008573ffffffffffffffffffffffffffffffffffffffff1673ffffffffffffffffffffffffffffffffffffffff16815260200190815260200160002060008473ffffffffffffffffffffffffffffffffffffffff1673ffffffffffffffffffffffffffffffffffffffff16815260200190815260200160002060006101000a81548160ff0219169083151502179055508173ffffffffffffffffffffffffffffffffffffffff168373ffffffffffffffffffffffffffffffffffffffff167f17307eab39ab6107e8899845ad3d59bd9653f200f220920489ca2b5937696c3183604051611ead91906125bc565b60405180910390a3505050565b6001816000016000828254019250508190555050565b600081600001549050919050565b600073ffffffffffffffffffffffffffffffffffffffff168273ffffffffffffffffffffffffffffffffffffffff161415611f4e576040517f08c379a0000000000000000000000000000000000000000000000000000000008152600401611f4590613a4a565b60405180910390fd5b611f5781611820565b15611f97576040517f08c379a0000000000000000000000000000000000000000000000000000000008152600401611f8e90613ab6565b60405180910390fd5b611fa360008383612280565b6001600360008473ffffffffffffffffffffffffffffffffffffffff1673ffffffffffffffffffffffffffffffffffffffff1681526020019081526020016000206000828254611ff39190613648565b92505081905550816002600083815260200190815260200160002060006101000a81548173ffffffffffffffffffffffffffffffffffffffff021916908373ffffffffffffffffffffffffffffffffffffffff160217905550808273ffffffffffffffffffffffffffffffffffffffff16600073ffffffffffffffffffffffffffffffffffffffff167fddf252ad1be2c89b69c2b068fc378daa952ba7f163c4a11628f55a4df523b3ef60405160405180910390a45050565b6120b7848484611a2b565b6120c384848484612285565b612102576040517f08c379a00000000000000000000000000000000000000000000000000000000081526004016120f990613b48565b60405180910390fd5b50505050565b606060405180602001604052806000815250905090565b60606000821415612167576040518060400160405280600181526020017f3000000000000000000000000000000000000000000000000000000000000000815250905061227b565b600082905060005b600082146121995780806121829061369e565b915050600a826121929190613b97565b915061216f565b60008167ffffffffffffffff8111156121b5576121b461293e565b5b6040519080825280601f01601f1916602001820160405280156121e75781602001600182028036833780820191505090505b5090505b6000851461227457600182612200919061395e565b9150600a8561220f9190613bc8565b603061221b9190613648565b60f81b818381518110612231576122306136e7565b5b60200101907effffffffffffffffffffffffffffffffffffffffffffffffffffffffffffff1916908160001a905350600a8561226d9190613b97565b94506121eb565b8093505050505b919050565b505050565b60006122a68473ffffffffffffffffffffffffffffffffffffffff1661240d565b15612400578373ffffffffffffffffffffffffffffffffffffffff1663150b7a026122cf61188c565b8786866040518563ffffffff1660e01b81526004016122f19493929190613c4e565b6020604051808303816000875af192505050801561232d57506040513d601f19601f8201168201806040525081019061232a9190613caf565b60015b6123b0573d806000811461235d576040519150601f19603f3d011682016040523d82523d6000602084013e612362565b606091505b506000815114156123a8576040517f08c379a000000000000000000000000000000000000000000000000000000000815260040161239f90613b48565b60405180910390fd5b805181602001fd5b63150b7a0260e01b7bffffffffffffffffffffffffffffffffffffffffffffffffffffffff1916817bffffffffffffffffffffffffffffffffffffffffffffffffffffffff191614915050612405565b600190505b949350505050565b600080823b905060008111915050919050565b82805461242c90612e95565b90600052602060002090601f01602090048101928261244e5760008555612495565b82601f1061246757805160ff1916838001178555612495565b82800160010185558215612495579182015b82811115612494578251825591602001919060010190612479565b5b5090506124a291906124eb565b5090565b6040518060a0016040528060008152602001600073ffffffffffffffffffffffffffffffffffffffff1681526020016000815260200160608152602001606081525090565b5b808211156125045760008160009055506001016124ec565b5090565b6000604051905090565b600080fd5b600080fd5b60007fffffffff0000000000000000000000000000000000000000000000000000000082169050919050565b6125518161251c565b811461255c57600080fd5b50565b60008135905061256e81612548565b92915050565b60006020828403121561258a57612589612512565b5b60006125988482850161255f565b91505092915050565b60008115159050919050565b6125b6816125a1565b82525050565b60006020820190506125d160008301846125ad565b92915050565b600081519050919050565b600082825260208201905092915050565b60005b838110156126115780820151818401526020810190506125f6565b83811115612620576000848401525b50505050565b6000601f19601f8301169050919050565b6000612642826125d7565b61264c81856125e2565b935061265c8185602086016125f3565b61266581612626565b840191505092915050565b6000602082019050818103600083015261268a8184612637565b905092915050565b6000819050919050565b6126a581612692565b81146126b057600080fd5b50565b6000813590506126c28161269c565b92915050565b6000602082840312156126de576126dd612512565b5b60006126ec848285016126b3565b91505092915050565b600073ffffffffffffffffffffffffffffffffffffffff82169050919050565b6000612720826126f5565b9050919050565b61273081612715565b82525050565b600060208201905061274b6000830184612727565b92915050565b61275a81612715565b811461276557600080fd5b50565b60008135905061277781612751565b92915050565b6000806040838503121561279457612793612512565b5b60006127a285828601612768565b92505060206127b3858286016126b3565b9150509250929050565b6127c681612692565b82525050565b600060a0820190506127e160008301886127bd565b6127ee6020830187612727565b6127fb60408301866127bd565b818103606083015261280d8185612637565b905081810360808301526128218184612637565b90509695505050505050565b60008060006060848603121561284657612845612512565b5b600061285486828701612768565b935050602061286586828701612768565b9250506040612876868287016126b3565b9150509250925092565b600060208201905061289560008301846127bd565b92915050565b6000602082840312156128b1576128b0612512565b5b60006128bf84828501612768565b91505092915050565b6128d1816125a1565b81146128dc57600080fd5b50565b6000813590506128ee816128c8565b92915050565b6000806040838503121561290b5761290a612512565b5b600061291985828601612768565b925050602061292a858286016128df565b9150509250929050565b600080fd5b600080fd5b7f4e487b7100000000000000000000000000000000000000000000000000000000600052604160045260246000fd5b61297682612626565b810181811067ffffffffffffffff821117156129955761299461293e565b5b80604052505050565b60006129a8612508565b90506129b4828261296d565b919050565b600067ffffffffffffffff8211156129d4576129d361293e565b5b6129dd82612626565b9050602081019050919050565b82818337600083830152505050565b6000612a0c612a07846129b9565b61299e565b905082815260208101848484011115612a2857612a27612939565b5b612a338482856129ea565b509392505050565b600082601f830112612a5057612a4f612934565b5b8135612a608482602086016129f9565b91505092915050565b600080600060608486031215612a8257612a81612512565b5b6000612a90868287016126b3565b935050602084013567ffffffffffffffff811115612ab157612ab0612517565b5b612abd86828701612a3b565b925050604084013567ffffffffffffffff811115612ade57612add612517565b5b612aea86828701612a3b565b9150509250925092565b600067ffffffffffffffff821115612b0f57612b0e61293e565b5b612b1882612626565b9050602081019050919050565b6000612b38612b3384612af4565b61299e565b905082815260208101848484011115612b5457612b53612939565b5b612b5f8482856129ea565b509392505050565b600082601f830112612b7c57612b7b612934565b5b8135612b8c848260208601612b25565b91505092915050565b60008060008060808587031215612baf57612bae612512565b5b6000612bbd87828801612768565b9450506020612bce87828801612768565b9350506040612bdf878288016126b3565b925050606085013567ffffffffffffffff811115612c0057612bff612517565b5b612c0c87828801612b67565b91505092959194509250565b600081519050919050565b600082825260208201905092915050565b6000819050602082019050919050565b612c4d81612692565b82525050565b612c5c81612715565b82525050565b600082825260208201905092915050565b6000612c7e826125d7565b612c888185612c62565b9350612c988185602086016125f3565b612ca181612626565b840191505092915050565b600060a083016000830151612cc46000860182612c44565b506020830151612cd76020860182612c53565b506040830151612cea6040860182612c44565b5060608301518482036060860152612d028282612c73565b91505060808301518482036080860152612d1c8282612c73565b9150508091505092915050565b6000612d358383612cac565b905092915050565b6000602082019050919050565b6000612d5582612c18565b612d5f8185612c23565b935083602082028501612d7185612c34565b8060005b85811015612dad5784840389528151612d8e8582612d29565b9450612d9983612d3d565b925060208a01995050600181019050612d75565b50829750879550505050505092915050565b60006020820190508181036000830152612dd98184612d4a565b905092915050565b60008060408385031215612df857612df7612512565b5b6000612e0685828601612768565b9250506020612e1785828601612768565b9150509250929050565b6000606082019050612e3660008301866127bd565b8181036020830152612e488185612637565b90508181036040830152612e5c8184612637565b9050949350505050565b7f4e487b7100000000000000000000000000000000000000000000000000000000600052602260045260246000fd5b60006002820490506001821680612ead57607f821691505b60208210811415612ec157612ec0612e66565b5b50919050565b7f4552433732313a20617070726f76656420717565727920666f72206e6f6e657860008201527f697374656e7420746f6b656e0000000000000000000000000000000000000000602082015250565b6000612f23602c836125e2565b9150612f2e82612ec7565b604082019050919050565b60006020820190508181036000830152612f5281612f16565b9050919050565b7f4552433732313a20617070726f76616c20746f2063757272656e74206f776e6560008201527f7200000000000000000000000000000000000000000000000000000000000000602082015250565b6000612fb56021836125e2565b9150612fc082612f59565b604082019050919050565b60006020820190508181036000830152612fe481612fa8565b9050919050565b7f4552433732313a20617070726f76652063616c6c6572206973206e6f74206f7760008201527f6e6572206e6f7220617070726f76656420666f7220616c6c0000000000000000602082015250565b60006130476038836125e2565b915061305282612feb565b604082019050919050565b600060208201905081810360008301526130768161303a565b9050919050565b7f4552433732313a207472616e736665722063616c6c6572206973206e6f74206f60008201527f776e6572206e6f7220617070726f766564000000000000000000000000000000602082015250565b60006130d96031836125e2565b91506130e48261307d565b604082019050919050565b60006020820190508181036000830152613108816130cc565b9050919050565b7f4552433732313a206f776e657220717565727920666f72206e6f6e657869737460008201527f656e7420746f6b656e0000000000000000000000000000000000000000000000602082015250565b600061316b6029836125e2565b91506131768261310f565b604082019050919050565b6000602082019050818103600083015261319a8161315e565b9050919050565b7f4552433732313a2062616c616e636520717565727920666f7220746865207a6560008201527f726f206164647265737300000000000000000000000000000000000000000000602082015250565b60006131fd602a836125e2565b9150613208826131a1565b604082019050919050565b6000602082019050818103600083015261322c816131f0565b9050919050565b7f4f776e61626c653a2063616c6c6572206973206e6f7420746865206f776e6572600082015250565b60006132696020836125e2565b915061327482613233565b602082019050919050565b600060208201905081810360008301526132988161325c565b9050919050565b7f5265656e7472616e637947756172643a207265656e7472616e742063616c6c00600082015250565b60006132d5601f836125e2565b91506132e08261329f565b602082019050919050565b60006020820190508181036000830152613304816132c8565b9050919050565b7f4669727374206e616d6520697320746f6f2073686f72742e0000000000000000600082015250565b60006133416018836125e2565b915061334c8261330b565b602082019050919050565b6000602082019050818103600083015261337081613334565b9050919050565b7f4669727374206e616d6520697320746f6f206c6f6e672e000000000000000000600082015250565b60006133ad6017836125e2565b91506133b882613377565b602082019050919050565b600060208201905081810360008301526133dc816133a0565b9050919050565b7f4c617374206e616d6520697320746f6f2073686f72742e000000000000000000600082015250565b60006134196017836125e2565b9150613424826133e3565b602082019050919050565b600060208201905081810360008301526134488161340c565b9050919050565b7f4c617374206e616d6520697320746f6f206c6f6e672e00000000000000000000600082015250565b60006134856016836125e2565b91506134908261344f565b602082019050919050565b600060208201905081810360008301526134b481613478565b9050919050565b7f416d6f756e74206f662045746865722073656e7420746f6f20736d616c6c2e00600082015250565b60006134f1601f836125e2565b91506134fc826134bb565b602082019050919050565b60006020820190508181036000830152613520816134e4565b9050919050565b7f4552433732314d657461646174613a2055524920717565727920666f72206e6f60008201527f6e6578697374656e7420746f6b656e0000000000000000000000000000000000602082015250565b6000613583602f836125e2565b915061358e82613527565b604082019050919050565b600060208201905081810360008301526135b281613576565b9050919050565b600081905092915050565b60006135cf826125d7565b6135d981856135b9565b93506135e98185602086016125f3565b80840191505092915050565b600061360182856135c4565b915061360d82846135c4565b91508190509392505050565b7f4e487b7100000000000000000000000000000000000000000000000000000000600052601160045260246000fd5b600061365382612692565b915061365e83612692565b9250827fffffffffffffffffffffffffffffffffffffffffffffffffffffffffffffffff0382111561369357613692613619565b5b828201905092915050565b60006136a982612692565b91507fffffffffffffffffffffffffffffffffffffffffffffffffffffffffffffffff8214156136dc576136db613619565b5b600182019050919050565b7f4e487b7100000000000000000000000000000000000000000000000000000000600052603260045260246000fd5b7f4f776e61626c653a206e6577206f776e657220697320746865207a65726f206160008201527f6464726573730000000000000000000000000000000000000000000000000000602082015250565b60006137726026836125e2565b915061377d82613716565b604082019050919050565b600060208201905081810360008301526137a181613765565b9050919050565b7f4552433732313a206f70657261746f7220717565727920666f72206e6f6e657860008201527f697374656e7420746f6b656e0000000000000000000000000000000000000000602082015250565b6000613804602c836125e2565b915061380f826137a8565b604082019050919050565b60006020820190508181036000830152613833816137f7565b9050919050565b7f4552433732313a207472616e73666572206f6620746f6b656e2074686174206960008201527f73206e6f74206f776e0000000000000000000000000000000000000000000000602082015250565b60006138966029836125e2565b91506138a18261383a565b604082019050919050565b600060208201905081810360008301526138c581613889565b9050919050565b7f4552433732313a207472616e7366657220746f20746865207a65726f2061646460008201527f7265737300000000000000000000000000000000000000000000000000000000602082015250565b60006139286024836125e2565b9150613933826138cc565b604082019050919050565b600060208201905081810360008301526139578161391b565b9050919050565b600061396982612692565b915061397483612692565b92508282101561398757613986613619565b5b828203905092915050565b7f4552433732313a20617070726f766520746f2063616c6c657200000000000000600082015250565b60006139c86019836125e2565b91506139d382613992565b602082019050919050565b600060208201905081810360008301526139f7816139bb565b9050919050565b7f4552433732313a206d696e7420746f20746865207a65726f2061646472657373600082015250565b6000613a346020836125e2565b9150613a3f826139fe565b602082019050919050565b60006020820190508181036000830152613a6381613a27565b9050919050565b7f4552433732313a20746f6b656e20616c7265616479206d696e74656400000000600082015250565b6000613aa0601c836125e2565b9150613aab82613a6a565b602082019050919050565b60006020820190508181036000830152613acf81613a93565b9050919050565b7f4552433732313a207472616e7366657220746f206e6f6e20455243373231526560008201527f63656976657220696d706c656d656e7465720000000000000000000000000000602082015250565b6000613b326032836125e2565b9150613b3d82613ad6565b604082019050919050565b60006020820190508181036000830152613b6181613b25565b9050919050565b7f4e487b7100000000000000000000000000000000000000000000000000000000600052601260045260246000fd5b6000613ba282612692565b9150613bad83612692565b925082613bbd57613bbc613b68565b5b828204905092915050565b6000613bd382612692565b9150613bde83612692565b925082613bee57613bed613b68565b5b828206905092915050565b600081519050919050565b600082825260208201905092915050565b6000613c2082613bf9565b613c2a8185613c04565b9350613c3a8185602086016125f3565b613c4381612626565b840191505092915050565b6000608082019050613c636000830187612727565b613c706020830186612727565b613c7d60408301856127bd565b8181036060830152613c8f8184613c15565b905095945050505050565b600081519050613ca981612548565b92915050565b600060208284031215613cc557613cc4612512565b5b6000613cd384828501613c9a565b9150509291505056fea2646970667358221220b9550328a61f1d5ecf8ac4dff0ebb78c3bd2fd993c2baba9276996ed7e03b6c664736f6c634300080b0033",
  "immutableReferences": {},
  "source": "// SPDX-License-Identifier: MIT\npragma solidity 0.8.11;\n\nimport \"@openzeppelin/contracts/token/ERC721/ERC721.sol\";\nimport \"@openzeppelin/contracts/security/ReentrancyGuard.sol\";\nimport \"@openzeppelin/contracts/access/Ownable.sol\";\nimport \"@openzeppelin/contracts/utils/Counters.sol\";\n\n// @title A simulator to adopt a devdoggie\n// @author Tramy N. Nguyen\n// @notice \n// @dev \ncontract AdoptionCenter is ERC721, ReentrancyGuard, Ownable {\n\n    /* DATATYPES */\n    using Counters for Counters.Counter;\n    Counters.Counter private _tokenIds;\n    address contractAddress;\n\n    /* CONSTANTS */\n    uint8 constant NAME_MIN_LENGTH = 1;\n    uint8 constant NAME_MAX_LENGTH = 64;\n\n    // @notice Current adoption fee for each devdoggie token in Ether\n    uint256 currentAdoptionFee = 0.02 ether;\n\n    // @notice The devdoggie token types (1, 2, 3);\n    mapping(uint256 => uint256) devDoggieTypes;\n\n    // @notice The first name of the devdoggie\n    mapping(uint256 => string) devDoggieFirstNames;\n\n    // @notice The last name of the devdoggie\n    mapping(uint256 => string) devDoggieLastNames;\n\n    // @notice This creates a public variable to store all the devdoggies of the owner\n    // @dev This is an array of devdoggies struct\n    mapping (uint256 => DevDoggie) public adoptedDevDoggies;\n\n    // DevDoggie[] public myDevDoggies;\n\n    struct DevDoggie {\n        // uint devDoggieId;\n        // address nftContract;\n        uint256 tokenId;\n        address owner;\n        uint256 devDoggieType;\n        string firstName;\n        string lastName;\n    }\n\n    /* EVENTS */\n    event DevDoggieAdopted(address indexed buyer, uint256 devDoggieId);\n\n    modifier isOwner (address _owner) {\n        require( msg.sender == _owner, \"Owner must be the same as the message sender.\" );\n        _;\n    }\n\n    constructor(address marketplaceAddress) ERC721(\"DevDoggieToken\", \"TARO\") {\n        contractAddress = marketplaceAddress;\n    }\n\n    // Requires the amount of Ether be at least or more of the currentPrice\n    // @dev Creates an instance of a devdoggie token and mints it to the purchaser\n    // @param _owner The address of the owner of this newly generated devdoggie token\n    // @param _type The devdoggie token as an integer\n    // @param _firstName The first name of the devdoggie token\n    // @param _lastName The last name of the devdoggie token\n    // @return Returns the devDoggieId of uint256\n    function adoptDevDoggie (\n        uint256 _devDoggieType\n        , string memory _firstName\n        , string memory _lastName\n    )\n        public\n        payable\n        nonReentrant\n        returns (uint256)\n        {\n            // Converts firstName and lastName to bytes\n            bytes memory _firstNameBytes = bytes(_firstName);\n            bytes memory _lastNameBytes = bytes(_lastName);\n\n            require(_firstNameBytes.length >= NAME_MIN_LENGTH, \"First name is too short.\");\n            require(_firstNameBytes.length >= NAME_MAX_LENGTH, \"First name is too long.\");\n            require(_lastNameBytes.length >= NAME_MIN_LENGTH, \"Last name is too short.\");\n            require(_lastNameBytes.length >= NAME_MAX_LENGTH, \"Last name is too long.\");\n\n            require(msg.value >= currentAdoptionFee, \"Amount of Ether sent too small.\");\n\n            // Updates tokenIds count\n            _tokenIds.increment();\n            \n            // Takes the current tokenId and sets to newDevDoggieId\n            uint256 newDevDoggieId = _tokenIds.current();\n            _mint(msg.sender, newDevDoggieId);\n\n            // \n\n            // Adds properties of new devdoggie that made the call to the adoptedDevDoggies array\n            adoptedDevDoggies[newDevDoggieId] = DevDoggie( {\n                tokenId: newDevDoggieId\n                , owner: msg.sender\n                , devDoggieType: _devDoggieType\n                , firstName: _firstName\n                , lastName: _lastName\n            } );\n\n            emit DevDoggieAdopted(msg.sender, newDevDoggieId);\n\n            return newDevDoggieId;\n        }\n\n    // @notice Returns all the devdoggie tokens the user owns\n    // @return An array of token indices\n    function getMyDevDoggies()\n        public\n        view\n        returns (DevDoggie[] memory)\n        {\n            uint totalDevDoggieCount = _tokenIds.current();\n            uint devDoggieCount = 0;\n            uint currentIndex = 0;\n\n            for (uint i = 0; i < totalDevDoggieCount; i++) {\n                if (adoptedDevDoggies[i + 1].owner == msg.sender) {\n                    devDoggieCount += 1;\n                }\n            }\n\n            DevDoggie[] memory myDevDoggies = new DevDoggie[](devDoggieCount);\n            for (uint i = 0; i < totalDevDoggieCount; i++) {\n                if (adoptedDevDoggies[i + 1].owner == msg.sender) {\n                    uint currentId = i + 1;\n                    DevDoggie storage currentDevDoggie = adoptedDevDoggies[currentId];\n                    myDevDoggies[currentIndex] = currentDevDoggie;\n                    currentIndex += 1;\n                }\n            }\n            // return devDoggies;\n            // DevDoggie[] storage myDevDoggies;\n            // for (uint i = 0; i < totalDevDoggieCount; i++) {\n            //     if (adoptedDevDoggies[i + 1].owner == msg.sender) {\n            //         uint currentId = i + 1;\n            //         // DevDoggie storage currentDevDoggie = DevDoggie[currentId];\n            //         myDevDoggies.push(DevDoggie({\n            //             tokenId: adoptedDevDoggies[currentId].tokenId\n            //             , owner: adoptedDevDoggies[currentId].owner\n            //             , devDoggieType: adoptedDevDoggies[currentId].devDoggieType\n            //             , firstName: adoptedDevDoggies[currentId].firstName\n            //             , lastName: adoptedDevDoggies[currentId].lastName\n            //         }));\n            //     }\n            // }\n            return myDevDoggies;\n        }\n    // @notice Returns the information about a specific devdoggie token\n    // @param _tokenId The ID of the devdoggie token\n    function getDevDoggie(uint256 _tokenId)\n        external\n        view\n        returns (\n            uint256 _devDoggieType\n            , string memory _devDoggieFirstName\n            , string memory _devDoggieLastName\n        )\n        {\n            _devDoggieType = devDoggieTypes[_tokenId];\n            _devDoggieFirstName = devDoggieFirstNames[_tokenId];\n            _devDoggieLastName = devDoggieLastNames[_tokenId];\n        }\n\n    function getCurrentAdoptionFee()\n        external\n        view\n        returns (uint256 adoptionFee)\n        {\n            adoptionFee = currentAdoptionFee;\n        }\n}",
  "sourcePath": "/Users/tramynguyen/consensys-academy/final-project/devdoggies/contracts/AdoptionCenter.sol",
  "compiler": {
    "name": "solc",
    "version": "0.8.11+commit.d7f03943.Emscripten.clang"
  },
  "schemaVersion": "3.4.4",
  "updatedAt": "2022-01-14T06:09:00.143Z",
  "devdoc": {
    "kind": "dev",
    "methods": {
      "approve(address,uint256)": {
        "details": "See {IERC721-approve}."
      },
      "balanceOf(address)": {
        "details": "See {IERC721-balanceOf}."
      },
      "getApproved(uint256)": {
        "details": "See {IERC721-getApproved}."
      },
      "isApprovedForAll(address,address)": {
        "details": "See {IERC721-isApprovedForAll}."
      },
      "name()": {
        "details": "See {IERC721Metadata-name}."
      },
      "owner()": {
        "details": "Returns the address of the current owner."
      },
      "ownerOf(uint256)": {
        "details": "See {IERC721-ownerOf}."
      },
      "renounceOwnership()": {
        "details": "Leaves the contract without owner. It will not be possible to call `onlyOwner` functions anymore. Can only be called by the current owner. NOTE: Renouncing ownership will leave the contract without an owner, thereby removing any functionality that is only available to the owner."
      },
      "safeTransferFrom(address,address,uint256)": {
        "details": "See {IERC721-safeTransferFrom}."
      },
      "safeTransferFrom(address,address,uint256,bytes)": {
        "details": "See {IERC721-safeTransferFrom}."
      },
      "setApprovalForAll(address,bool)": {
        "details": "See {IERC721-setApprovalForAll}."
      },
      "supportsInterface(bytes4)": {
        "details": "See {IERC165-supportsInterface}."
      },
      "symbol()": {
        "details": "See {IERC721Metadata-symbol}."
      },
      "tokenURI(uint256)": {
        "details": "See {IERC721Metadata-tokenURI}."
      },
      "transferFrom(address,address,uint256)": {
        "details": "See {IERC721-transferFrom}."
      },
      "transferOwnership(address)": {
        "details": "Transfers ownership of the contract to a new account (`newOwner`). Can only be called by the current owner."
      }
    },
    "version": 1
  },
  "userdoc": {
    "kind": "user",
    "methods": {},
    "version": 1
  }
}