{
  "contractName": "DevDoggieToken",
  "abi": [
    {
      "inputs": [],
      "stateMutability": "nonpayable",
      "type": "constructor"
    },
    {
      "anonymous": false,
      "inputs": [
        {
          "indexed": true,
          "internalType": "address",
          "name": "owner",
          "type": "address"
        },
        {
          "indexed": true,
          "internalType": "address",
          "name": "approved",
          "type": "address"
        },
        {
          "indexed": true,
          "internalType": "uint256",
          "name": "tokenId",
          "type": "uint256"
        }
      ],
      "name": "Approval",
      "type": "event"
    },
    {
      "anonymous": false,
      "inputs": [
        {
          "indexed": true,
          "internalType": "address",
          "name": "owner",
          "type": "address"
        },
        {
          "indexed": true,
          "internalType": "address",
          "name": "operator",
          "type": "address"
        },
        {
          "indexed": false,
          "internalType": "bool",
          "name": "approved",
          "type": "bool"
        }
      ],
      "name": "ApprovalForAll",
      "type": "event"
    },
    {
      "anonymous": false,
      "inputs": [
        {
          "indexed": true,
          "internalType": "address",
          "name": "buyer",
          "type": "address"
        },
        {
          "indexed": false,
          "internalType": "uint256",
          "name": "devDoggieId",
          "type": "uint256"
        }
      ],
      "name": "DevDoggieAdopted",
      "type": "event"
    },
    {
      "anonymous": false,
      "inputs": [
        {
          "indexed": true,
          "internalType": "address",
          "name": "previousOwner",
          "type": "address"
        },
        {
          "indexed": true,
          "internalType": "address",
          "name": "newOwner",
          "type": "address"
        }
      ],
      "name": "OwnershipTransferred",
      "type": "event"
    },
    {
      "anonymous": false,
      "inputs": [
        {
          "indexed": true,
          "internalType": "address",
          "name": "from",
          "type": "address"
        },
        {
          "indexed": true,
          "internalType": "address",
          "name": "to",
          "type": "address"
        },
        {
          "indexed": true,
          "internalType": "uint256",
          "name": "tokenId",
          "type": "uint256"
        }
      ],
      "name": "Transfer",
      "type": "event"
    },
    {
      "inputs": [
        {
          "internalType": "uint256",
          "name": "",
          "type": "uint256"
        }
      ],
      "name": "adoptedDevDoggies",
      "outputs": [
        {
          "internalType": "uint256",
          "name": "tokenId",
          "type": "uint256"
        },
        {
          "internalType": "address",
          "name": "owner",
          "type": "address"
        },
        {
          "internalType": "uint256",
          "name": "devDoggieType",
          "type": "uint256"
        },
        {
          "internalType": "string",
          "name": "firstName",
          "type": "string"
        },
        {
          "internalType": "string",
          "name": "lastName",
          "type": "string"
        }
      ],
      "stateMutability": "view",
      "type": "function"
    },
    {
      "inputs": [
        {
          "internalType": "address",
          "name": "to",
          "type": "address"
        },
        {
          "internalType": "uint256",
          "name": "tokenId",
          "type": "uint256"
        }
      ],
      "name": "approve",
      "outputs": [],
      "stateMutability": "nonpayable",
      "type": "function"
    },
    {
      "inputs": [
        {
          "internalType": "address",
          "name": "owner",
          "type": "address"
        }
      ],
      "name": "balanceOf",
      "outputs": [
        {
          "internalType": "uint256",
          "name": "",
          "type": "uint256"
        }
      ],
      "stateMutability": "view",
      "type": "function"
    },
    {
      "inputs": [
        {
          "internalType": "uint256",
          "name": "tokenId",
          "type": "uint256"
        }
      ],
      "name": "getApproved",
      "outputs": [
        {
          "internalType": "address",
          "name": "",
          "type": "address"
        }
      ],
      "stateMutability": "view",
      "type": "function"
    },
    {
      "inputs": [
        {
          "internalType": "address",
          "name": "owner",
          "type": "address"
        },
        {
          "internalType": "address",
          "name": "operator",
          "type": "address"
        }
      ],
      "name": "isApprovedForAll",
      "outputs": [
        {
          "internalType": "bool",
          "name": "",
          "type": "bool"
        }
      ],
      "stateMutability": "view",
      "type": "function"
    },
    {
      "inputs": [],
      "name": "name",
      "outputs": [
        {
          "internalType": "string",
          "name": "",
          "type": "string"
        }
      ],
      "stateMutability": "view",
      "type": "function"
    },
    {
      "inputs": [],
      "name": "owner",
      "outputs": [
        {
          "internalType": "address",
          "name": "",
          "type": "address"
        }
      ],
      "stateMutability": "view",
      "type": "function"
    },
    {
      "inputs": [
        {
          "internalType": "uint256",
          "name": "tokenId",
          "type": "uint256"
        }
      ],
      "name": "ownerOf",
      "outputs": [
        {
          "internalType": "address",
          "name": "",
          "type": "address"
        }
      ],
      "stateMutability": "view",
      "type": "function"
    },
    {
      "inputs": [],
      "name": "renounceOwnership",
      "outputs": [],
      "stateMutability": "nonpayable",
      "type": "function"
    },
    {
      "inputs": [
        {
          "internalType": "address",
          "name": "from",
          "type": "address"
        },
        {
          "internalType": "address",
          "name": "to",
          "type": "address"
        },
        {
          "internalType": "uint256",
          "name": "tokenId",
          "type": "uint256"
        }
      ],
      "name": "safeTransferFrom",
      "outputs": [],
      "stateMutability": "nonpayable",
      "type": "function"
    },
    {
      "inputs": [
        {
          "internalType": "address",
          "name": "from",
          "type": "address"
        },
        {
          "internalType": "address",
          "name": "to",
          "type": "address"
        },
        {
          "internalType": "uint256",
          "name": "tokenId",
          "type": "uint256"
        },
        {
          "internalType": "bytes",
          "name": "_data",
          "type": "bytes"
        }
      ],
      "name": "safeTransferFrom",
      "outputs": [],
      "stateMutability": "nonpayable",
      "type": "function"
    },
    {
      "inputs": [
        {
          "internalType": "address",
          "name": "operator",
          "type": "address"
        },
        {
          "internalType": "bool",
          "name": "approved",
          "type": "bool"
        }
      ],
      "name": "setApprovalForAll",
      "outputs": [],
      "stateMutability": "nonpayable",
      "type": "function"
    },
    {
      "inputs": [
        {
          "internalType": "bytes4",
          "name": "interfaceId",
          "type": "bytes4"
        }
      ],
      "name": "supportsInterface",
      "outputs": [
        {
          "internalType": "bool",
          "name": "",
          "type": "bool"
        }
      ],
      "stateMutability": "view",
      "type": "function"
    },
    {
      "inputs": [],
      "name": "symbol",
      "outputs": [
        {
          "internalType": "string",
          "name": "",
          "type": "string"
        }
      ],
      "stateMutability": "view",
      "type": "function"
    },
    {
      "inputs": [
        {
          "internalType": "uint256",
          "name": "tokenId",
          "type": "uint256"
        }
      ],
      "name": "tokenURI",
      "outputs": [
        {
          "internalType": "string",
          "name": "",
          "type": "string"
        }
      ],
      "stateMutability": "view",
      "type": "function"
    },
    {
      "inputs": [
        {
          "internalType": "address",
          "name": "from",
          "type": "address"
        },
        {
          "internalType": "address",
          "name": "to",
          "type": "address"
        },
        {
          "internalType": "uint256",
          "name": "tokenId",
          "type": "uint256"
        }
      ],
      "name": "transferFrom",
      "outputs": [],
      "stateMutability": "nonpayable",
      "type": "function"
    },
    {
      "inputs": [
        {
          "internalType": "address",
          "name": "newOwner",
          "type": "address"
        }
      ],
      "name": "transferOwnership",
      "outputs": [],
      "stateMutability": "nonpayable",
      "type": "function"
    },
    {
      "inputs": [
        {
          "internalType": "uint256",
          "name": "_devDoggieType",
          "type": "uint256"
        },
        {
          "internalType": "string",
          "name": "_firstName",
          "type": "string"
        },
        {
          "internalType": "string",
          "name": "_lastName",
          "type": "string"
        }
      ],
      "name": "adoptDevDoggie",
      "outputs": [
        {
          "internalType": "uint256",
          "name": "",
          "type": "uint256"
        }
      ],
      "stateMutability": "payable",
      "type": "function"
    },
    {
      "inputs": [],
      "name": "getMyDevDoggies",
      "outputs": [
        {
          "components": [
            {
              "internalType": "uint256",
              "name": "tokenId",
              "type": "uint256"
            },
            {
              "internalType": "address",
              "name": "owner",
              "type": "address"
            },
            {
              "internalType": "uint256",
              "name": "devDoggieType",
              "type": "uint256"
            },
            {
              "internalType": "string",
              "name": "firstName",
              "type": "string"
            },
            {
              "internalType": "string",
              "name": "lastName",
              "type": "string"
            }
          ],
          "internalType": "struct DevDoggieToken.DevDoggie[]",
          "name": "",
          "type": "tuple[]"
        }
      ],
      "stateMutability": "view",
      "type": "function"
    },
    {
      "inputs": [
        {
          "internalType": "uint256",
          "name": "_tokenId",
          "type": "uint256"
        }
      ],
      "name": "getDevDoggie",
      "outputs": [
        {
          "internalType": "uint256",
          "name": "_devDoggieType",
          "type": "uint256"
        },
        {
          "internalType": "string",
          "name": "_devDoggieFirstName",
          "type": "string"
        },
        {
          "internalType": "string",
          "name": "_devDoggieLastName",
          "type": "string"
        }
      ],
      "stateMutability": "view",
      "type": "function"
    },
    {
      "inputs": [],
      "name": "getCurrentAdoptionFee",
      "outputs": [
        {
          "internalType": "uint256",
          "name": "adoptionFee",
          "type": "uint256"
        }
      ],
      "stateMutability": "view",
      "type": "function"
    }
  ],
  "bytecode": "0x608060405266071afd498d00006009553480156200001c57600080fd5b506040518060400160405280600e81526020017f446576446f67676965546f6b656e0000000000000000000000000000000000008152506040518060400160405280600481526020017f5441524f000000000000000000000000000000000000000000000000000000008152508160009080519060200190620000a1929190620001b9565b508060019080519060200190620000ba929190620001b9565b5050506001600681905550620000e5620000d9620000eb60201b60201c565b620000f360201b60201c565b620002ce565b600033905090565b6000600760009054906101000a900473ffffffffffffffffffffffffffffffffffffffff16905081600760006101000a81548173ffffffffffffffffffffffffffffffffffffffff021916908373ffffffffffffffffffffffffffffffffffffffff1602179055508173ffffffffffffffffffffffffffffffffffffffff168173ffffffffffffffffffffffffffffffffffffffff167f8be0079c531659141344cd1fd0a4f28419497f9722a3daafe3b4186f6b6457e060405160405180910390a35050565b828054620001c79062000298565b90600052602060002090601f016020900481019282620001eb576000855562000237565b82601f106200020657805160ff191683800117855562000237565b8280016001018555821562000237579182015b828111156200023657825182559160200191906001019062000219565b5b5090506200024691906200024a565b5090565b5b80821115620002655760008160009055506001016200024b565b5090565b7f4e487b7100000000000000000000000000000000000000000000000000000000600052602260045260246000fd5b60006002820490506001821680620002b157607f821691505b60208210811415620002c857620002c762000269565b5b50919050565b613e1480620002de6000396000f3fe60806040526004361061012a5760003560e01c8063715018a6116100ab578063b88d4fde1161006f578063b88d4fde146103fb578063c87b56dd14610424578063df229e9514610461578063e985e9c51461048c578063f2fde38b146104c9578063f497abad146104f25761012a565b8063715018a6146103355780638da5cb5b1461034c57806395d89b4114610377578063a22cb465146103a2578063b427cc2e146103cb5761012a565b806323b872dd116100f257806323b872dd1461023e57806342842e0e146102675780636352211e146102905780636f9b9168146102cd57806370a08231146102f85761012a565b806301ffc9a71461012f57806306fdde031461016c578063081812fc14610197578063095ea7b3146101d457806320c7a272146101fd575b600080fd5b34801561013b57600080fd5b50610156600480360381019061015191906125e4565b610531565b604051610163919061262c565b60405180910390f35b34801561017857600080fd5b50610181610613565b60405161018e91906126e0565b60405180910390f35b3480156101a357600080fd5b506101be60048036038101906101b99190612738565b6106a5565b6040516101cb91906127a6565b60405180910390f35b3480156101e057600080fd5b506101fb60048036038101906101f691906127ed565b61072a565b005b34801561020957600080fd5b50610224600480360381019061021f9190612738565b610842565b60405161023595949392919061283c565b60405180910390f35b34801561024a57600080fd5b506102656004803603810190610260919061289d565b6109a8565b005b34801561027357600080fd5b5061028e6004803603810190610289919061289d565b610a08565b005b34801561029c57600080fd5b506102b760048036038101906102b29190612738565b610a28565b6040516102c491906127a6565b60405180910390f35b3480156102d957600080fd5b506102e2610ada565b6040516102ef91906128f0565b60405180910390f35b34801561030457600080fd5b5061031f600480360381019061031a919061290b565b610ae4565b60405161032c91906128f0565b60405180910390f35b34801561034157600080fd5b5061034a610b9c565b005b34801561035857600080fd5b50610361610c24565b60405161036e91906127a6565b60405180910390f35b34801561038357600080fd5b5061038c610c4e565b60405161039991906126e0565b60405180910390f35b3480156103ae57600080fd5b506103c960048036038101906103c49190612964565b610ce0565b005b6103e560048036038101906103e09190612ad9565b610cf6565b6040516103f291906128f0565b60405180910390f35b34801561040757600080fd5b50610422600480360381019061041d9190612c05565b611022565b005b34801561043057600080fd5b5061044b60048036038101906104469190612738565b611084565b60405161045891906126e0565b60405180910390f35b34801561046d57600080fd5b5061047661112b565b6040516104839190612e2f565b60405180910390f35b34801561049857600080fd5b506104b360048036038101906104ae9190612e51565b61153c565b6040516104c0919061262c565b60405180910390f35b3480156104d557600080fd5b506104f060048036038101906104eb919061290b565b6115d0565b005b3480156104fe57600080fd5b5061051960048036038101906105149190612738565b6116c8565b60405161052893929190612e91565b60405180910390f35b60007f80ac58cd000000000000000000000000000000000000000000000000000000007bffffffffffffffffffffffffffffffffffffffffffffffffffffffff1916827bffffffffffffffffffffffffffffffffffffffffffffffffffffffff191614806105fc57507f5b5e139f000000000000000000000000000000000000000000000000000000007bffffffffffffffffffffffffffffffffffffffffffffffffffffffff1916827bffffffffffffffffffffffffffffffffffffffffffffffffffffffff1916145b8061060c575061060b82611826565b5b9050919050565b60606000805461062290612f05565b80601f016020809104026020016040519081016040528092919081815260200182805461064e90612f05565b801561069b5780601f106106705761010080835404028352916020019161069b565b820191906000526020600020905b81548152906001019060200180831161067e57829003601f168201915b5050505050905090565b60006106b082611890565b6106ef576040517f08c379a00000000000000000000000000000000000000000000000000000000081526004016106e690612fa9565b60405180910390fd5b6004600083815260200190815260200160002060009054906101000a900473ffffffffffffffffffffffffffffffffffffffff169050919050565b600061073582610a28565b90508073ffffffffffffffffffffffffffffffffffffffff168373ffffffffffffffffffffffffffffffffffffffff1614156107a6576040517f08c379a000000000000000000000000000000000000000000000000000000000815260040161079d9061303b565b60405180910390fd5b8073ffffffffffffffffffffffffffffffffffffffff166107c56118fc565b73ffffffffffffffffffffffffffffffffffffffff1614806107f457506107f3816107ee6118fc565b61153c565b5b610833576040517f08c379a000000000000000000000000000000000000000000000000000000000815260040161082a906130cd565b60405180910390fd5b61083d8383611904565b505050565b600d6020528060005260406000206000915090508060000154908060010160009054906101000a900473ffffffffffffffffffffffffffffffffffffffff169080600201549080600301805461089790612f05565b80601f01602080910402602001604051908101604052809291908181526020018280546108c390612f05565b80156109105780601f106108e557610100808354040283529160200191610910565b820191906000526020600020905b8154815290600101906020018083116108f357829003601f168201915b50505050509080600401805461092590612f05565b80601f016020809104026020016040519081016040528092919081815260200182805461095190612f05565b801561099e5780601f106109735761010080835404028352916020019161099e565b820191906000526020600020905b81548152906001019060200180831161098157829003601f168201915b5050505050905085565b6109b96109b36118fc565b826119bd565b6109f8576040517f08c379a00000000000000000000000000000000000000000000000000000000081526004016109ef9061315f565b60405180910390fd5b610a03838383611a9b565b505050565b610a2383838360405180602001604052806000815250611022565b505050565b6000806002600084815260200190815260200160002060009054906101000a900473ffffffffffffffffffffffffffffffffffffffff169050600073ffffffffffffffffffffffffffffffffffffffff168173ffffffffffffffffffffffffffffffffffffffff161415610ad1576040517f08c379a0000000000000000000000000000000000000000000000000000000008152600401610ac8906131f1565b60405180910390fd5b80915050919050565b6000600954905090565b60008073ffffffffffffffffffffffffffffffffffffffff168273ffffffffffffffffffffffffffffffffffffffff161415610b55576040517f08c379a0000000000000000000000000000000000000000000000000000000008152600401610b4c90613283565b60405180910390fd5b600360008373ffffffffffffffffffffffffffffffffffffffff1673ffffffffffffffffffffffffffffffffffffffff168152602001908152602001600020549050919050565b610ba46118fc565b73ffffffffffffffffffffffffffffffffffffffff16610bc2610c24565b73ffffffffffffffffffffffffffffffffffffffff1614610c18576040517f08c379a0000000000000000000000000000000000000000000000000000000008152600401610c0f906132ef565b60405180910390fd5b610c226000611cf7565b565b6000600760009054906101000a900473ffffffffffffffffffffffffffffffffffffffff16905090565b606060018054610c5d90612f05565b80601f0160208091040260200160405190810160405280929190818152602001828054610c8990612f05565b8015610cd65780601f10610cab57610100808354040283529160200191610cd6565b820191906000526020600020905b815481529060010190602001808311610cb957829003601f168201915b5050505050905090565b610cf2610ceb6118fc565b8383611dbd565b5050565b600060026006541415610d3e576040517f08c379a0000000000000000000000000000000000000000000000000000000008152600401610d359061335b565b60405180910390fd5b600260068190555060008390506000839050600160ff1682511015610d98576040517f08c379a0000000000000000000000000000000000000000000000000000000008152600401610d8f906133c7565b60405180910390fd5b604060ff1682511115610de0576040517f08c379a0000000000000000000000000000000000000000000000000000000008152600401610dd790613433565b60405180910390fd5b600160ff1681511015610e28576040517f08c379a0000000000000000000000000000000000000000000000000000000008152600401610e1f9061349f565b60405180910390fd5b604060ff1681511115610e70576040517f08c379a0000000000000000000000000000000000000000000000000000000008152600401610e679061350b565b60405180910390fd5b600954341015610eb5576040517f08c379a0000000000000000000000000000000000000000000000000000000008152600401610eac90613577565b60405180910390fd5b610ebf6008611f2a565b6000610ecb6008611f40565b9050610ed73382611f4e565b6040518060a001604052808281526020013373ffffffffffffffffffffffffffffffffffffffff16815260200188815260200187815260200186815250600d60008381526020019081526020016000206000820151816000015560208201518160010160006101000a81548173ffffffffffffffffffffffffffffffffffffffff021916908373ffffffffffffffffffffffffffffffffffffffff160217905550604082015181600201556060820151816003019080519060200190610f9e929190612490565b506080820151816004019080519060200190610fbb929190612490565b509050503373ffffffffffffffffffffffffffffffffffffffff167fddbdd9e922189839dbb4e0298f2ef222a37b3766e39cf15f922b6c8574638cef8260405161100591906128f0565b60405180910390a280935050505060016006819055509392505050565b61103361102d6118fc565b836119bd565b611072576040517f08c379a00000000000000000000000000000000000000000000000000000000081526004016110699061315f565b60405180910390fd5b61107e8484848461211c565b50505050565b606061108f82611890565b6110ce576040517f08c379a00000000000000000000000000000000000000000000000000000000081526004016110c590613609565b60405180910390fd5b60006110d8612178565b905060008151116110f85760405180602001604052806000815250611123565b806111028461218f565b604051602001611113929190613665565b6040516020818303038152906040525b915050919050565b6060338073ffffffffffffffffffffffffffffffffffffffff163373ffffffffffffffffffffffffffffffffffffffff161461119c576040517f08c379a0000000000000000000000000000000000000000000000000000000008152600401611193906136fb565b60405180910390fd5b60006111a86008611f40565b905060008060005b83811015611251573373ffffffffffffffffffffffffffffffffffffffff16600d60006001846111e0919061374a565b815260200190815260200160002060010160009054906101000a900473ffffffffffffffffffffffffffffffffffffffff1673ffffffffffffffffffffffffffffffffffffffff16141561123e5760018361123b919061374a565b92505b8080611249906137a0565b9150506111b0565b5060008267ffffffffffffffff81111561126e5761126d6129ae565b5b6040519080825280602002602001820160405280156112a757816020015b611294612516565b81526020019060019003908161128c5790505b50905060005b84811015611530573373ffffffffffffffffffffffffffffffffffffffff16600d60006001846112dd919061374a565b815260200190815260200160002060010160009054906101000a900473ffffffffffffffffffffffffffffffffffffffff1673ffffffffffffffffffffffffffffffffffffffff16141561151d57600060018261133a919061374a565b90506000600d60008381526020019081526020016000209050806040518060a0016040529081600082015481526020016001820160009054906101000a900473ffffffffffffffffffffffffffffffffffffffff1673ffffffffffffffffffffffffffffffffffffffff1673ffffffffffffffffffffffffffffffffffffffff168152602001600282015481526020016003820180546113d990612f05565b80601f016020809104026020016040519081016040528092919081815260200182805461140590612f05565b80156114525780601f1061142757610100808354040283529160200191611452565b820191906000526020600020905b81548152906001019060200180831161143557829003601f168201915b5050505050815260200160048201805461146b90612f05565b80601f016020809104026020016040519081016040528092919081815260200182805461149790612f05565b80156114e45780601f106114b9576101008083540402835291602001916114e4565b820191906000526020600020905b8154815290600101906020018083116114c757829003601f168201915b505050505081525050848681518110611500576114ff6137e9565b5b6020026020010181905250600185611518919061374a565b945050505b8080611528906137a0565b9150506112ad565b50809550505050505090565b6000600560008473ffffffffffffffffffffffffffffffffffffffff1673ffffffffffffffffffffffffffffffffffffffff16815260200190815260200160002060008373ffffffffffffffffffffffffffffffffffffffff1673ffffffffffffffffffffffffffffffffffffffff16815260200190815260200160002060009054906101000a900460ff16905092915050565b6115d86118fc565b73ffffffffffffffffffffffffffffffffffffffff166115f6610c24565b73ffffffffffffffffffffffffffffffffffffffff161461164c576040517f08c379a0000000000000000000000000000000000000000000000000000000008152600401611643906132ef565b60405180910390fd5b600073ffffffffffffffffffffffffffffffffffffffff168173ffffffffffffffffffffffffffffffffffffffff1614156116bc576040517f08c379a00000000000000000000000000000000000000000000000000000000081526004016116b39061388a565b60405180910390fd5b6116c581611cf7565b50565b6000606080600a6000858152602001908152602001600020549250600b6000858152602001908152602001600020805461170190612f05565b80601f016020809104026020016040519081016040528092919081815260200182805461172d90612f05565b801561177a5780601f1061174f5761010080835404028352916020019161177a565b820191906000526020600020905b81548152906001019060200180831161175d57829003601f168201915b50505050509150600c6000858152602001908152602001600020805461179f90612f05565b80601f01602080910402602001604051908101604052809291908181526020018280546117cb90612f05565b80156118185780601f106117ed57610100808354040283529160200191611818565b820191906000526020600020905b8154815290600101906020018083116117fb57829003601f168201915b505050505090509193909250565b60007f01ffc9a7000000000000000000000000000000000000000000000000000000007bffffffffffffffffffffffffffffffffffffffffffffffffffffffff1916827bffffffffffffffffffffffffffffffffffffffffffffffffffffffff1916149050919050565b60008073ffffffffffffffffffffffffffffffffffffffff166002600084815260200190815260200160002060009054906101000a900473ffffffffffffffffffffffffffffffffffffffff1673ffffffffffffffffffffffffffffffffffffffff1614159050919050565b600033905090565b816004600083815260200190815260200160002060006101000a81548173ffffffffffffffffffffffffffffffffffffffff021916908373ffffffffffffffffffffffffffffffffffffffff160217905550808273ffffffffffffffffffffffffffffffffffffffff1661197783610a28565b73ffffffffffffffffffffffffffffffffffffffff167f8c5be1e5ebec7d5bd14f71427d1e84f3dd0314c0f7b2291e5b200ac8c7c3b92560405160405180910390a45050565b60006119c882611890565b611a07576040517f08c379a00000000000000000000000000000000000000000000000000000000081526004016119fe9061391c565b60405180910390fd5b6000611a1283610a28565b90508073ffffffffffffffffffffffffffffffffffffffff168473ffffffffffffffffffffffffffffffffffffffff161480611a8157508373ffffffffffffffffffffffffffffffffffffffff16611a69846106a5565b73ffffffffffffffffffffffffffffffffffffffff16145b80611a925750611a91818561153c565b5b91505092915050565b8273ffffffffffffffffffffffffffffffffffffffff16611abb82610a28565b73ffffffffffffffffffffffffffffffffffffffff1614611b11576040517f08c379a0000000000000000000000000000000000000000000000000000000008152600401611b08906139ae565b60405180910390fd5b600073ffffffffffffffffffffffffffffffffffffffff168273ffffffffffffffffffffffffffffffffffffffff161415611b81576040517f08c379a0000000000000000000000000000000000000000000000000000000008152600401611b7890613a40565b60405180910390fd5b611b8c8383836122f0565b611b97600082611904565b6001600360008573ffffffffffffffffffffffffffffffffffffffff1673ffffffffffffffffffffffffffffffffffffffff1681526020019081526020016000206000828254611be79190613a60565b925050819055506001600360008473ffffffffffffffffffffffffffffffffffffffff1673ffffffffffffffffffffffffffffffffffffffff1681526020019081526020016000206000828254611c3e919061374a565b92505081905550816002600083815260200190815260200160002060006101000a81548173ffffffffffffffffffffffffffffffffffffffff021916908373ffffffffffffffffffffffffffffffffffffffff160217905550808273ffffffffffffffffffffffffffffffffffffffff168473ffffffffffffffffffffffffffffffffffffffff167fddf252ad1be2c89b69c2b068fc378daa952ba7f163c4a11628f55a4df523b3ef60405160405180910390a4505050565b6000600760009054906101000a900473ffffffffffffffffffffffffffffffffffffffff16905081600760006101000a81548173ffffffffffffffffffffffffffffffffffffffff021916908373ffffffffffffffffffffffffffffffffffffffff1602179055508173ffffffffffffffffffffffffffffffffffffffff168173ffffffffffffffffffffffffffffffffffffffff167f8be0079c531659141344cd1fd0a4f28419497f9722a3daafe3b4186f6b6457e060405160405180910390a35050565b8173ffffffffffffffffffffffffffffffffffffffff168373ffffffffffffffffffffffffffffffffffffffff161415611e2c576040517f08c379a0000000000000000000000000000000000000000000000000000000008152600401611e2390613ae0565b60405180910390fd5b80600560008573ffffffffffffffffffffffffffffffffffffffff1673ffffffffffffffffffffffffffffffffffffffff16815260200190815260200160002060008473ffffffffffffffffffffffffffffffffffffffff1673ffffffffffffffffffffffffffffffffffffffff16815260200190815260200160002060006101000a81548160ff0219169083151502179055508173ffffffffffffffffffffffffffffffffffffffff168373ffffffffffffffffffffffffffffffffffffffff167f17307eab39ab6107e8899845ad3d59bd9653f200f220920489ca2b5937696c3183604051611f1d919061262c565b60405180910390a3505050565b6001816000016000828254019250508190555050565b600081600001549050919050565b600073ffffffffffffffffffffffffffffffffffffffff168273ffffffffffffffffffffffffffffffffffffffff161415611fbe576040517f08c379a0000000000000000000000000000000000000000000000000000000008152600401611fb590613b4c565b60405180910390fd5b611fc781611890565b15612007576040517f08c379a0000000000000000000000000000000000000000000000000000000008152600401611ffe90613bb8565b60405180910390fd5b612013600083836122f0565b6001600360008473ffffffffffffffffffffffffffffffffffffffff1673ffffffffffffffffffffffffffffffffffffffff1681526020019081526020016000206000828254612063919061374a565b92505081905550816002600083815260200190815260200160002060006101000a81548173ffffffffffffffffffffffffffffffffffffffff021916908373ffffffffffffffffffffffffffffffffffffffff160217905550808273ffffffffffffffffffffffffffffffffffffffff16600073ffffffffffffffffffffffffffffffffffffffff167fddf252ad1be2c89b69c2b068fc378daa952ba7f163c4a11628f55a4df523b3ef60405160405180910390a45050565b612127848484611a9b565b612133848484846122f5565b612172576040517f08c379a000000000000000000000000000000000000000000000000000000000815260040161216990613c4a565b60405180910390fd5b50505050565b606060405180602001604052806000815250905090565b606060008214156121d7576040518060400160405280600181526020017f300000000000000000000000000000000000000000000000000000000000000081525090506122eb565b600082905060005b600082146122095780806121f2906137a0565b915050600a826122029190613c99565b91506121df565b60008167ffffffffffffffff811115612225576122246129ae565b5b6040519080825280601f01601f1916602001820160405280156122575781602001600182028036833780820191505090505b5090505b600085146122e4576001826122709190613a60565b9150600a8561227f9190613cca565b603061228b919061374a565b60f81b8183815181106122a1576122a06137e9565b5b60200101907effffffffffffffffffffffffffffffffffffffffffffffffffffffffffffff1916908160001a905350600a856122dd9190613c99565b945061225b565b8093505050505b919050565b505050565b60006123168473ffffffffffffffffffffffffffffffffffffffff1661247d565b15612470578373ffffffffffffffffffffffffffffffffffffffff1663150b7a0261233f6118fc565b8786866040518563ffffffff1660e01b81526004016123619493929190613d50565b6020604051808303816000875af192505050801561239d57506040513d601f19601f8201168201806040525081019061239a9190613db1565b60015b612420573d80600081146123cd576040519150601f19603f3d011682016040523d82523d6000602084013e6123d2565b606091505b50600081511415612418576040517f08c379a000000000000000000000000000000000000000000000000000000000815260040161240f90613c4a565b60405180910390fd5b805181602001fd5b63150b7a0260e01b7bffffffffffffffffffffffffffffffffffffffffffffffffffffffff1916817bffffffffffffffffffffffffffffffffffffffffffffffffffffffff191614915050612475565b600190505b949350505050565b600080823b905060008111915050919050565b82805461249c90612f05565b90600052602060002090601f0160209004810192826124be5760008555612505565b82601f106124d757805160ff1916838001178555612505565b82800160010185558215612505579182015b828111156125045782518255916020019190600101906124e9565b5b509050612512919061255b565b5090565b6040518060a0016040528060008152602001600073ffffffffffffffffffffffffffffffffffffffff1681526020016000815260200160608152602001606081525090565b5b8082111561257457600081600090555060010161255c565b5090565b6000604051905090565b600080fd5b600080fd5b60007fffffffff0000000000000000000000000000000000000000000000000000000082169050919050565b6125c18161258c565b81146125cc57600080fd5b50565b6000813590506125de816125b8565b92915050565b6000602082840312156125fa576125f9612582565b5b6000612608848285016125cf565b91505092915050565b60008115159050919050565b61262681612611565b82525050565b6000602082019050612641600083018461261d565b92915050565b600081519050919050565b600082825260208201905092915050565b60005b83811015612681578082015181840152602081019050612666565b83811115612690576000848401525b50505050565b6000601f19601f8301169050919050565b60006126b282612647565b6126bc8185612652565b93506126cc818560208601612663565b6126d581612696565b840191505092915050565b600060208201905081810360008301526126fa81846126a7565b905092915050565b6000819050919050565b61271581612702565b811461272057600080fd5b50565b6000813590506127328161270c565b92915050565b60006020828403121561274e5761274d612582565b5b600061275c84828501612723565b91505092915050565b600073ffffffffffffffffffffffffffffffffffffffff82169050919050565b600061279082612765565b9050919050565b6127a081612785565b82525050565b60006020820190506127bb6000830184612797565b92915050565b6127ca81612785565b81146127d557600080fd5b50565b6000813590506127e7816127c1565b92915050565b6000806040838503121561280457612803612582565b5b6000612812858286016127d8565b925050602061282385828601612723565b9150509250929050565b61283681612702565b82525050565b600060a082019050612851600083018861282d565b61285e6020830187612797565b61286b604083018661282d565b818103606083015261287d81856126a7565b9050818103608083015261289181846126a7565b90509695505050505050565b6000806000606084860312156128b6576128b5612582565b5b60006128c4868287016127d8565b93505060206128d5868287016127d8565b92505060406128e686828701612723565b9150509250925092565b6000602082019050612905600083018461282d565b92915050565b60006020828403121561292157612920612582565b5b600061292f848285016127d8565b91505092915050565b61294181612611565b811461294c57600080fd5b50565b60008135905061295e81612938565b92915050565b6000806040838503121561297b5761297a612582565b5b6000612989858286016127d8565b925050602061299a8582860161294f565b9150509250929050565b600080fd5b600080fd5b7f4e487b7100000000000000000000000000000000000000000000000000000000600052604160045260246000fd5b6129e682612696565b810181811067ffffffffffffffff82111715612a0557612a046129ae565b5b80604052505050565b6000612a18612578565b9050612a2482826129dd565b919050565b600067ffffffffffffffff821115612a4457612a436129ae565b5b612a4d82612696565b9050602081019050919050565b82818337600083830152505050565b6000612a7c612a7784612a29565b612a0e565b905082815260208101848484011115612a9857612a976129a9565b5b612aa3848285612a5a565b509392505050565b600082601f830112612ac057612abf6129a4565b5b8135612ad0848260208601612a69565b91505092915050565b600080600060608486031215612af257612af1612582565b5b6000612b0086828701612723565b935050602084013567ffffffffffffffff811115612b2157612b20612587565b5b612b2d86828701612aab565b925050604084013567ffffffffffffffff811115612b4e57612b4d612587565b5b612b5a86828701612aab565b9150509250925092565b600067ffffffffffffffff821115612b7f57612b7e6129ae565b5b612b8882612696565b9050602081019050919050565b6000612ba8612ba384612b64565b612a0e565b905082815260208101848484011115612bc457612bc36129a9565b5b612bcf848285612a5a565b509392505050565b600082601f830112612bec57612beb6129a4565b5b8135612bfc848260208601612b95565b91505092915050565b60008060008060808587031215612c1f57612c1e612582565b5b6000612c2d878288016127d8565b9450506020612c3e878288016127d8565b9350506040612c4f87828801612723565b925050606085013567ffffffffffffffff811115612c7057612c6f612587565b5b612c7c87828801612bd7565b91505092959194509250565b600081519050919050565b600082825260208201905092915050565b6000819050602082019050919050565b612cbd81612702565b82525050565b612ccc81612785565b82525050565b600082825260208201905092915050565b6000612cee82612647565b612cf88185612cd2565b9350612d08818560208601612663565b612d1181612696565b840191505092915050565b600060a083016000830151612d346000860182612cb4565b506020830151612d476020860182612cc3565b506040830151612d5a6040860182612cb4565b5060608301518482036060860152612d728282612ce3565b91505060808301518482036080860152612d8c8282612ce3565b9150508091505092915050565b6000612da58383612d1c565b905092915050565b6000602082019050919050565b6000612dc582612c88565b612dcf8185612c93565b935083602082028501612de185612ca4565b8060005b85811015612e1d5784840389528151612dfe8582612d99565b9450612e0983612dad565b925060208a01995050600181019050612de5565b50829750879550505050505092915050565b60006020820190508181036000830152612e498184612dba565b905092915050565b60008060408385031215612e6857612e67612582565b5b6000612e76858286016127d8565b9250506020612e87858286016127d8565b9150509250929050565b6000606082019050612ea6600083018661282d565b8181036020830152612eb881856126a7565b90508181036040830152612ecc81846126a7565b9050949350505050565b7f4e487b7100000000000000000000000000000000000000000000000000000000600052602260045260246000fd5b60006002820490506001821680612f1d57607f821691505b60208210811415612f3157612f30612ed6565b5b50919050565b7f4552433732313a20617070726f76656420717565727920666f72206e6f6e657860008201527f697374656e7420746f6b656e0000000000000000000000000000000000000000602082015250565b6000612f93602c83612652565b9150612f9e82612f37565b604082019050919050565b60006020820190508181036000830152612fc281612f86565b9050919050565b7f4552433732313a20617070726f76616c20746f2063757272656e74206f776e6560008201527f7200000000000000000000000000000000000000000000000000000000000000602082015250565b6000613025602183612652565b915061303082612fc9565b604082019050919050565b6000602082019050818103600083015261305481613018565b9050919050565b7f4552433732313a20617070726f76652063616c6c6572206973206e6f74206f7760008201527f6e6572206e6f7220617070726f76656420666f7220616c6c0000000000000000602082015250565b60006130b7603883612652565b91506130c28261305b565b604082019050919050565b600060208201905081810360008301526130e6816130aa565b9050919050565b7f4552433732313a207472616e736665722063616c6c6572206973206e6f74206f60008201527f776e6572206e6f7220617070726f766564000000000000000000000000000000602082015250565b6000613149603183612652565b9150613154826130ed565b604082019050919050565b600060208201905081810360008301526131788161313c565b9050919050565b7f4552433732313a206f776e657220717565727920666f72206e6f6e657869737460008201527f656e7420746f6b656e0000000000000000000000000000000000000000000000602082015250565b60006131db602983612652565b91506131e68261317f565b604082019050919050565b6000602082019050818103600083015261320a816131ce565b9050919050565b7f4552433732313a2062616c616e636520717565727920666f7220746865207a6560008201527f726f206164647265737300000000000000000000000000000000000000000000602082015250565b600061326d602a83612652565b915061327882613211565b604082019050919050565b6000602082019050818103600083015261329c81613260565b9050919050565b7f4f776e61626c653a2063616c6c6572206973206e6f7420746865206f776e6572600082015250565b60006132d9602083612652565b91506132e4826132a3565b602082019050919050565b60006020820190508181036000830152613308816132cc565b9050919050565b7f5265656e7472616e637947756172643a207265656e7472616e742063616c6c00600082015250565b6000613345601f83612652565b91506133508261330f565b602082019050919050565b6000602082019050818103600083015261337481613338565b9050919050565b7f4669727374206e616d6520697320746f6f2073686f72742e0000000000000000600082015250565b60006133b1601883612652565b91506133bc8261337b565b602082019050919050565b600060208201905081810360008301526133e0816133a4565b9050919050565b7f4669727374206e616d6520697320746f6f206c6f6e672e000000000000000000600082015250565b600061341d601783612652565b9150613428826133e7565b602082019050919050565b6000602082019050818103600083015261344c81613410565b9050919050565b7f4c617374206e616d6520697320746f6f2073686f72742e000000000000000000600082015250565b6000613489601783612652565b915061349482613453565b602082019050919050565b600060208201905081810360008301526134b88161347c565b9050919050565b7f4c617374206e616d6520697320746f6f206c6f6e672e00000000000000000000600082015250565b60006134f5601683612652565b9150613500826134bf565b602082019050919050565b60006020820190508181036000830152613524816134e8565b9050919050565b7f416d6f756e74206f662045746865722073656e7420746f6f20736d616c6c2e00600082015250565b6000613561601f83612652565b915061356c8261352b565b602082019050919050565b6000602082019050818103600083015261359081613554565b9050919050565b7f4552433732314d657461646174613a2055524920717565727920666f72206e6f60008201527f6e6578697374656e7420746f6b656e0000000000000000000000000000000000602082015250565b60006135f3602f83612652565b91506135fe82613597565b604082019050919050565b60006020820190508181036000830152613622816135e6565b9050919050565b600081905092915050565b600061363f82612647565b6136498185613629565b9350613659818560208601612663565b80840191505092915050565b60006136718285613634565b915061367d8284613634565b91508190509392505050565b7f4f776e6572206d757374206265207468652073616d6520617320746865206d6560008201527f73736167652073656e6465722e00000000000000000000000000000000000000602082015250565b60006136e5602d83612652565b91506136f082613689565b604082019050919050565b60006020820190508181036000830152613714816136d8565b9050919050565b7f4e487b7100000000000000000000000000000000000000000000000000000000600052601160045260246000fd5b600061375582612702565b915061376083612702565b9250827fffffffffffffffffffffffffffffffffffffffffffffffffffffffffffffffff038211156137955761379461371b565b5b828201905092915050565b60006137ab82612702565b91507fffffffffffffffffffffffffffffffffffffffffffffffffffffffffffffffff8214156137de576137dd61371b565b5b600182019050919050565b7f4e487b7100000000000000000000000000000000000000000000000000000000600052603260045260246000fd5b7f4f776e61626c653a206e6577206f776e657220697320746865207a65726f206160008201527f6464726573730000000000000000000000000000000000000000000000000000602082015250565b6000613874602683612652565b915061387f82613818565b604082019050919050565b600060208201905081810360008301526138a381613867565b9050919050565b7f4552433732313a206f70657261746f7220717565727920666f72206e6f6e657860008201527f697374656e7420746f6b656e0000000000000000000000000000000000000000602082015250565b6000613906602c83612652565b9150613911826138aa565b604082019050919050565b60006020820190508181036000830152613935816138f9565b9050919050565b7f4552433732313a207472616e73666572206f6620746f6b656e2074686174206960008201527f73206e6f74206f776e0000000000000000000000000000000000000000000000602082015250565b6000613998602983612652565b91506139a38261393c565b604082019050919050565b600060208201905081810360008301526139c78161398b565b9050919050565b7f4552433732313a207472616e7366657220746f20746865207a65726f2061646460008201527f7265737300000000000000000000000000000000000000000000000000000000602082015250565b6000613a2a602483612652565b9150613a35826139ce565b604082019050919050565b60006020820190508181036000830152613a5981613a1d565b9050919050565b6000613a6b82612702565b9150613a7683612702565b925082821015613a8957613a8861371b565b5b828203905092915050565b7f4552433732313a20617070726f766520746f2063616c6c657200000000000000600082015250565b6000613aca601983612652565b9150613ad582613a94565b602082019050919050565b60006020820190508181036000830152613af981613abd565b9050919050565b7f4552433732313a206d696e7420746f20746865207a65726f2061646472657373600082015250565b6000613b36602083612652565b9150613b4182613b00565b602082019050919050565b60006020820190508181036000830152613b6581613b29565b9050919050565b7f4552433732313a20746f6b656e20616c7265616479206d696e74656400000000600082015250565b6000613ba2601c83612652565b9150613bad82613b6c565b602082019050919050565b60006020820190508181036000830152613bd181613b95565b9050919050565b7f4552433732313a207472616e7366657220746f206e6f6e20455243373231526560008201527f63656976657220696d706c656d656e7465720000000000000000000000000000602082015250565b6000613c34603283612652565b9150613c3f82613bd8565b604082019050919050565b60006020820190508181036000830152613c6381613c27565b9050919050565b7f4e487b7100000000000000000000000000000000000000000000000000000000600052601260045260246000fd5b6000613ca482612702565b9150613caf83612702565b925082613cbf57613cbe613c6a565b5b828204905092915050565b6000613cd582612702565b9150613ce083612702565b925082613cf057613cef613c6a565b5b828206905092915050565b600081519050919050565b600082825260208201905092915050565b6000613d2282613cfb565b613d2c8185613d06565b9350613d3c818560208601612663565b613d4581612696565b840191505092915050565b6000608082019050613d656000830187612797565b613d726020830186612797565b613d7f604083018561282d565b8181036060830152613d918184613d17565b905095945050505050565b600081519050613dab816125b8565b92915050565b600060208284031215613dc757613dc6612582565b5b6000613dd584828501613d9c565b9150509291505056fea26469706673582212202e579fb0cdf0e67ccfadfb417178ee42b4455db2df3205a82f5c6d62d702ea7664736f6c634300080b0033",
  "immutableReferences": {},
  "source": "// SPDX-License-Identifier: MIT\npragma solidity 0.8.11;\n\nimport \"@openzeppelin/contracts/token/ERC721/ERC721.sol\";\nimport \"@openzeppelin/contracts/security/ReentrancyGuard.sol\";\nimport \"@openzeppelin/contracts/access/Ownable.sol\";\nimport \"@openzeppelin/contracts/utils/Counters.sol\";\n\n// @title Contract for adopting a DevDoggie\n// @author Tramy N. Nguyen\n// @notice Allows a user to obtain ownership of a DevDoggie NFT\ncontract DevDoggieToken is ERC721, ReentrancyGuard, Ownable {\n    /* \n        CONSTANTS \n    */\n\n    uint8 constant NAME_MIN_LENGTH = 1;\n    uint8 constant NAME_MAX_LENGTH = 64;\n\n    /* \n        DATATYPES \n    */\n\n    // @notice Uses the Counter logic from OpenZeppelin\n    // @dev Creates ID generation for a DevDoggie token\n    using Counters for Counters.Counter;\n    Counters.Counter private _tokenIds;\n\n    // @notice Current adoption fee for each devdoggie token in Ether\n    uint256 currentAdoptionFee = 0.002 ether;\n\n    // @notice The devdoggie token types\n    // @dev Is 1, 2, or 3\n    mapping(uint256 => uint256) devDoggieTypes;\n\n    // @notice The first name of the devdoggie\n    mapping(uint256 => string) devDoggieFirstNames;\n\n    // @notice The last name of the devdoggie\n    mapping(uint256 => string) devDoggieLastNames;\n\n    // @notice This creates a public variable to store all the devdoggies of the owner\n    // @dev This is an array of devdoggies struct\n    mapping (uint256 => DevDoggie) public adoptedDevDoggies;\n\n    struct DevDoggie {\n        uint256 tokenId;\n        address owner;\n        uint256 devDoggieType;\n        string firstName;\n        string lastName;\n    }\n\n    /* \n        EVENTS\n    */\n\n    // @notice Emitted when a DevDoggie is adopted\n    // @param buyer is the msg.sender\n    // @param buyer is the msg.sender\n    event DevDoggieAdopted(address indexed buyer, uint256 devDoggieId);\n\n    /* \n        MODIFIERS\n    */\n    \n    modifier isOwner (address _owner) {\n        require( msg.sender == _owner, \"Owner must be the same as the message sender.\" );\n        _;\n    }\n\n    constructor() ERC721(\"DevDoggieToken\", \"TARO\") {\n    }\n\n    /* \n        FUNCTIONS\n    */\n\n    // @notice Function for adopting a DevDoggie\n    // @dev Requires the amount of Ether be at least or more of the currentPrice\n    // @dev Creates an instance of a devdoggie token and mints it to the purchaser\n    // @param _devDoggieType The devdoggie token as an integer\n    // @param _firstName The first name of the devdoggie token\n    // @param _lastName The last name of the devdoggie token\n    // @return Returns the devDoggieId of uint256\n    function adoptDevDoggie (\n        uint256 _devDoggieType\n        , string memory _firstName\n        , string memory _lastName\n    )\n        public\n        payable\n        nonReentrant\n        returns (uint256)\n        {\n            // Converts firstName and lastName to bytes\n            bytes memory _firstNameBytes = bytes(_firstName);\n            bytes memory _lastNameBytes = bytes(_lastName);\n\n            require(_firstNameBytes.length >= NAME_MIN_LENGTH, \"First name is too short.\");\n            require(_firstNameBytes.length <= NAME_MAX_LENGTH, \"First name is too long.\");\n            require(_lastNameBytes.length >= NAME_MIN_LENGTH, \"Last name is too short.\");\n            require(_lastNameBytes.length <= NAME_MAX_LENGTH, \"Last name is too long.\");\n\n            require(msg.value >= currentAdoptionFee, \"Amount of Ether sent too small.\");\n\n            // Updates tokenIds count\n            _tokenIds.increment();\n            \n            // Takes the current tokenId and sets to newDevDoggieId\n            uint256 newDevDoggieId = _tokenIds.current();\n            _mint(msg.sender, newDevDoggieId);\n\n            // Adds properties of new devdoggie that made the call to the adoptedDevDoggies array\n            adoptedDevDoggies[newDevDoggieId] = DevDoggie( {\n                tokenId: newDevDoggieId\n                , owner: msg.sender\n                , devDoggieType: _devDoggieType\n                , firstName: _firstName\n                , lastName: _lastName\n            } );\n\n            emit DevDoggieAdopted(msg.sender, newDevDoggieId);\n\n            return newDevDoggieId;\n        }\n\n    // @notice Returns all the devdoggie tokens the user owns\n    // @dev Finds the DevDoggieTokens of the owner\n    // @return An array of DevDoggie tokens for the owner/buyer\n    function getMyDevDoggies()\n        public\n        view\n        isOwner( msg.sender )\n        returns (DevDoggie[] memory)\n        {\n            uint totalDevDoggieCount = _tokenIds.current();\n            uint devDoggieCount = 0;\n            uint currentIndex = 0;\n\n            for (uint i = 0; i < totalDevDoggieCount; i++) {\n                if (adoptedDevDoggies[i + 1].owner == msg.sender) {\n                    devDoggieCount += 1;\n                }\n            }\n\n            DevDoggie[] memory myDevDoggies = new DevDoggie[](devDoggieCount);\n            for (uint i = 0; i < totalDevDoggieCount; i++) {\n                if (adoptedDevDoggies[i + 1].owner == msg.sender) {\n                    uint currentId = i + 1;\n                    DevDoggie storage currentDevDoggie = adoptedDevDoggies[currentId];\n                    myDevDoggies[currentIndex] = currentDevDoggie;\n                    currentIndex += 1;\n                }\n            }\n            return myDevDoggies;\n        }\n\n    // @notice Returns the information about a specific DevDoggie token\n    // @param _tokenId The ID of the DevDoggie token\n    // @return Returns a _devDoggieType of uint256\n    // @return Returns a string for _devDoggieFirstName\n    // @return Returns a string for _devDoggieLastName\n    function getDevDoggie(uint256 _tokenId)\n        external\n        view\n        returns (\n            uint256 _devDoggieType\n            , string memory _devDoggieFirstName\n            , string memory _devDoggieLastName\n        )\n        {\n            _devDoggieType = devDoggieTypes[_tokenId];\n            _devDoggieFirstName = devDoggieFirstNames[_tokenId];\n            _devDoggieLastName = devDoggieLastNames[_tokenId];\n        }\n\n    // @notice Function for retrieving the currentAdoptionFee\n    // @return Returns the adoptionFee of uint256\n    function getCurrentAdoptionFee()\n        external\n        view\n        returns (uint256 adoptionFee)\n        {\n            adoptionFee = currentAdoptionFee;\n        }\n}",
  "sourcePath": "/Users/tramynguyen/consensys-academy/final-project/devdoggies/contracts/DevDoggieToken.sol",
  "compiler": {
    "name": "solc",
    "version": "0.8.11+commit.d7f03943.Emscripten.clang"
  },
  "schemaVersion": "3.4.4",
  "updatedAt": "2022-01-18T04:43:53.931Z",
  "devdoc": {
    "kind": "dev",
    "methods": {
      "approve(address,uint256)": {
        "details": "See {IERC721-approve}."
      },
      "balanceOf(address)": {
        "details": "See {IERC721-balanceOf}."
      },
      "getApproved(uint256)": {
        "details": "See {IERC721-getApproved}."
      },
      "isApprovedForAll(address,address)": {
        "details": "See {IERC721-isApprovedForAll}."
      },
      "name()": {
        "details": "See {IERC721Metadata-name}."
      },
      "owner()": {
        "details": "Returns the address of the current owner."
      },
      "ownerOf(uint256)": {
        "details": "See {IERC721-ownerOf}."
      },
      "renounceOwnership()": {
        "details": "Leaves the contract without owner. It will not be possible to call `onlyOwner` functions anymore. Can only be called by the current owner. NOTE: Renouncing ownership will leave the contract without an owner, thereby removing any functionality that is only available to the owner."
      },
      "safeTransferFrom(address,address,uint256)": {
        "details": "See {IERC721-safeTransferFrom}."
      },
      "safeTransferFrom(address,address,uint256,bytes)": {
        "details": "See {IERC721-safeTransferFrom}."
      },
      "setApprovalForAll(address,bool)": {
        "details": "See {IERC721-setApprovalForAll}."
      },
      "supportsInterface(bytes4)": {
        "details": "See {IERC165-supportsInterface}."
      },
      "symbol()": {
        "details": "See {IERC721Metadata-symbol}."
      },
      "tokenURI(uint256)": {
        "details": "See {IERC721Metadata-tokenURI}."
      },
      "transferFrom(address,address,uint256)": {
        "details": "See {IERC721-transferFrom}."
      },
      "transferOwnership(address)": {
        "details": "Transfers ownership of the contract to a new account (`newOwner`). Can only be called by the current owner."
      }
    },
    "version": 1
  },
  "userdoc": {
    "kind": "user",
    "methods": {},
    "version": 1
  }
}