{
  "contractName": "DevDoggieToken",
  "abi": [
    {
      "inputs": [
        {
          "internalType": "address",
          "name": "marketplaceAddress",
          "type": "address"
        }
      ],
      "stateMutability": "nonpayable",
      "type": "constructor"
    },
    {
      "anonymous": false,
      "inputs": [
        {
          "indexed": true,
          "internalType": "address",
          "name": "buyer",
          "type": "address"
        },
        {
          "indexed": false,
          "internalType": "uint256",
          "name": "devDoggieId",
          "type": "uint256"
        }
      ],
      "name": "AdoptedDevDoggie",
      "type": "event"
    },
    {
      "anonymous": false,
      "inputs": [
        {
          "indexed": true,
          "internalType": "address",
          "name": "owner",
          "type": "address"
        },
        {
          "indexed": true,
          "internalType": "address",
          "name": "approved",
          "type": "address"
        },
        {
          "indexed": true,
          "internalType": "uint256",
          "name": "tokenId",
          "type": "uint256"
        }
      ],
      "name": "Approval",
      "type": "event"
    },
    {
      "anonymous": false,
      "inputs": [
        {
          "indexed": true,
          "internalType": "address",
          "name": "owner",
          "type": "address"
        },
        {
          "indexed": true,
          "internalType": "address",
          "name": "operator",
          "type": "address"
        },
        {
          "indexed": false,
          "internalType": "bool",
          "name": "approved",
          "type": "bool"
        }
      ],
      "name": "ApprovalForAll",
      "type": "event"
    },
    {
      "anonymous": false,
      "inputs": [
        {
          "indexed": true,
          "internalType": "address",
          "name": "previousOwner",
          "type": "address"
        },
        {
          "indexed": true,
          "internalType": "address",
          "name": "newOwner",
          "type": "address"
        }
      ],
      "name": "OwnershipTransferred",
      "type": "event"
    },
    {
      "anonymous": false,
      "inputs": [
        {
          "indexed": true,
          "internalType": "address",
          "name": "from",
          "type": "address"
        },
        {
          "indexed": true,
          "internalType": "address",
          "name": "to",
          "type": "address"
        },
        {
          "indexed": true,
          "internalType": "uint256",
          "name": "tokenId",
          "type": "uint256"
        }
      ],
      "name": "Transfer",
      "type": "event"
    },
    {
      "inputs": [
        {
          "internalType": "address",
          "name": "to",
          "type": "address"
        },
        {
          "internalType": "uint256",
          "name": "tokenId",
          "type": "uint256"
        }
      ],
      "name": "approve",
      "outputs": [],
      "stateMutability": "nonpayable",
      "type": "function"
    },
    {
      "inputs": [
        {
          "internalType": "address",
          "name": "owner",
          "type": "address"
        }
      ],
      "name": "balanceOf",
      "outputs": [
        {
          "internalType": "uint256",
          "name": "",
          "type": "uint256"
        }
      ],
      "stateMutability": "view",
      "type": "function"
    },
    {
      "inputs": [
        {
          "internalType": "uint256",
          "name": "tokenId",
          "type": "uint256"
        }
      ],
      "name": "getApproved",
      "outputs": [
        {
          "internalType": "address",
          "name": "",
          "type": "address"
        }
      ],
      "stateMutability": "view",
      "type": "function"
    },
    {
      "inputs": [
        {
          "internalType": "address",
          "name": "owner",
          "type": "address"
        },
        {
          "internalType": "address",
          "name": "operator",
          "type": "address"
        }
      ],
      "name": "isApprovedForAll",
      "outputs": [
        {
          "internalType": "bool",
          "name": "",
          "type": "bool"
        }
      ],
      "stateMutability": "view",
      "type": "function"
    },
    {
      "inputs": [],
      "name": "name",
      "outputs": [
        {
          "internalType": "string",
          "name": "",
          "type": "string"
        }
      ],
      "stateMutability": "view",
      "type": "function"
    },
    {
      "inputs": [],
      "name": "owner",
      "outputs": [
        {
          "internalType": "address",
          "name": "",
          "type": "address"
        }
      ],
      "stateMutability": "view",
      "type": "function"
    },
    {
      "inputs": [
        {
          "internalType": "uint256",
          "name": "tokenId",
          "type": "uint256"
        }
      ],
      "name": "ownerOf",
      "outputs": [
        {
          "internalType": "address",
          "name": "",
          "type": "address"
        }
      ],
      "stateMutability": "view",
      "type": "function"
    },
    {
      "inputs": [],
      "name": "renounceOwnership",
      "outputs": [],
      "stateMutability": "nonpayable",
      "type": "function"
    },
    {
      "inputs": [
        {
          "internalType": "address",
          "name": "from",
          "type": "address"
        },
        {
          "internalType": "address",
          "name": "to",
          "type": "address"
        },
        {
          "internalType": "uint256",
          "name": "tokenId",
          "type": "uint256"
        }
      ],
      "name": "safeTransferFrom",
      "outputs": [],
      "stateMutability": "nonpayable",
      "type": "function"
    },
    {
      "inputs": [
        {
          "internalType": "address",
          "name": "from",
          "type": "address"
        },
        {
          "internalType": "address",
          "name": "to",
          "type": "address"
        },
        {
          "internalType": "uint256",
          "name": "tokenId",
          "type": "uint256"
        },
        {
          "internalType": "bytes",
          "name": "_data",
          "type": "bytes"
        }
      ],
      "name": "safeTransferFrom",
      "outputs": [],
      "stateMutability": "nonpayable",
      "type": "function"
    },
    {
      "inputs": [
        {
          "internalType": "address",
          "name": "operator",
          "type": "address"
        },
        {
          "internalType": "bool",
          "name": "approved",
          "type": "bool"
        }
      ],
      "name": "setApprovalForAll",
      "outputs": [],
      "stateMutability": "nonpayable",
      "type": "function"
    },
    {
      "inputs": [
        {
          "internalType": "bytes4",
          "name": "interfaceId",
          "type": "bytes4"
        }
      ],
      "name": "supportsInterface",
      "outputs": [
        {
          "internalType": "bool",
          "name": "",
          "type": "bool"
        }
      ],
      "stateMutability": "view",
      "type": "function"
    },
    {
      "inputs": [],
      "name": "symbol",
      "outputs": [
        {
          "internalType": "string",
          "name": "",
          "type": "string"
        }
      ],
      "stateMutability": "view",
      "type": "function"
    },
    {
      "inputs": [
        {
          "internalType": "uint256",
          "name": "tokenId",
          "type": "uint256"
        }
      ],
      "name": "tokenURI",
      "outputs": [
        {
          "internalType": "string",
          "name": "",
          "type": "string"
        }
      ],
      "stateMutability": "view",
      "type": "function"
    },
    {
      "inputs": [
        {
          "internalType": "address",
          "name": "from",
          "type": "address"
        },
        {
          "internalType": "address",
          "name": "to",
          "type": "address"
        },
        {
          "internalType": "uint256",
          "name": "tokenId",
          "type": "uint256"
        }
      ],
      "name": "transferFrom",
      "outputs": [],
      "stateMutability": "nonpayable",
      "type": "function"
    },
    {
      "inputs": [
        {
          "internalType": "address",
          "name": "newOwner",
          "type": "address"
        }
      ],
      "name": "transferOwnership",
      "outputs": [],
      "stateMutability": "nonpayable",
      "type": "function"
    },
    {
      "inputs": [
        {
          "internalType": "string",
          "name": "_firstName",
          "type": "string"
        },
        {
          "internalType": "string",
          "name": "_lastName",
          "type": "string"
        }
      ],
      "name": "adoptDevDoggie",
      "outputs": [
        {
          "internalType": "uint256",
          "name": "",
          "type": "uint256"
        }
      ],
      "stateMutability": "nonpayable",
      "type": "function"
    },
    {
      "inputs": [
        {
          "internalType": "uint256",
          "name": "_devDoggieId",
          "type": "uint256"
        }
      ],
      "name": "getDevDoggie",
      "outputs": [
        {
          "internalType": "uint256",
          "name": "_devDoggieType",
          "type": "uint256"
        },
        {
          "internalType": "string",
          "name": "_devDoggieFirstName",
          "type": "string"
        },
        {
          "internalType": "string",
          "name": "_devDoggieLastName",
          "type": "string"
        }
      ],
      "stateMutability": "view",
      "type": "function"
    },
    {
      "inputs": [],
      "name": "getCurrentAdoptionFee",
      "outputs": [
        {
          "internalType": "uint256",
          "name": "adoptionFee",
          "type": "uint256"
        }
      ],
      "stateMutability": "view",
      "type": "function"
    }
  ],
  "bytecode": "0x608060405266470de4df820000600a553480156200001c57600080fd5b50604051620034bd380380620034bd83398181016040528101906200004291906200033a565b6040518060400160405280600e81526020017f446576446f67676965546f6b656e0000000000000000000000000000000000008152506040518060400160405280600481526020017f5441524f000000000000000000000000000000000000000000000000000000008152508160009080519060200190620000c692919062000220565b508060019080519060200190620000df92919062000220565b50505060016006819055506200010a620000fe6200015260201b60201c565b6200015a60201b60201c565b80600960006101000a81548173ffffffffffffffffffffffffffffffffffffffff021916908373ffffffffffffffffffffffffffffffffffffffff16021790555050620003d1565b600033905090565b6000600760009054906101000a900473ffffffffffffffffffffffffffffffffffffffff16905081600760006101000a81548173ffffffffffffffffffffffffffffffffffffffff021916908373ffffffffffffffffffffffffffffffffffffffff1602179055508173ffffffffffffffffffffffffffffffffffffffff168173ffffffffffffffffffffffffffffffffffffffff167f8be0079c531659141344cd1fd0a4f28419497f9722a3daafe3b4186f6b6457e060405160405180910390a35050565b8280546200022e906200039b565b90600052602060002090601f0160209004810192826200025257600085556200029e565b82601f106200026d57805160ff19168380011785556200029e565b828001600101855582156200029e579182015b828111156200029d57825182559160200191906001019062000280565b5b509050620002ad9190620002b1565b5090565b5b80821115620002cc576000816000905550600101620002b2565b5090565b600080fd5b600073ffffffffffffffffffffffffffffffffffffffff82169050919050565b60006200030282620002d5565b9050919050565b6200031481620002f5565b81146200032057600080fd5b50565b600081519050620003348162000309565b92915050565b600060208284031215620003535762000352620002d0565b5b6000620003638482850162000323565b91505092915050565b7f4e487b7100000000000000000000000000000000000000000000000000000000600052602260045260246000fd5b60006002820490506001821680620003b457607f821691505b60208210811415620003cb57620003ca6200036c565b5b50919050565b6130dc80620003e16000396000f3fe608060405234801561001057600080fd5b50600436106101215760003560e01c8063715018a6116100ad578063b88d4fde11610071578063b88d4fde14610308578063c87b56dd14610324578063e985e9c514610354578063f2fde38b14610384578063f497abad146103a057610121565b8063715018a6146102765780638da5cb5b1461028057806395d89b411461029e578063a22cb465146102bc578063b4969364146102d857610121565b806323b872dd116100f457806323b872dd146101c057806342842e0e146101dc5780636352211e146101f85780636f9b91681461022857806370a082311461024657610121565b806301ffc9a71461012657806306fdde0314610156578063081812fc14610174578063095ea7b3146101a4575b600080fd5b610140600480360381019061013b9190611c53565b6103d2565b60405161014d9190611c9b565b60405180910390f35b61015e6104b4565b60405161016b9190611d4f565b60405180910390f35b61018e60048036038101906101899190611da7565b610546565b60405161019b9190611e15565b60405180910390f35b6101be60048036038101906101b99190611e5c565b6105cb565b005b6101da60048036038101906101d59190611e9c565b6106e3565b005b6101f660048036038101906101f19190611e9c565b610743565b005b610212600480360381019061020d9190611da7565b610763565b60405161021f9190611e15565b60405180910390f35b610230610815565b60405161023d9190611efe565b60405180910390f35b610260600480360381019061025b9190611f19565b61081f565b60405161026d9190611efe565b60405180910390f35b61027e6108d7565b005b61028861095f565b6040516102959190611e15565b60405180910390f35b6102a6610989565b6040516102b39190611d4f565b60405180910390f35b6102d660048036038101906102d19190611f72565b610a1b565b005b6102f260048036038101906102ed91906120e7565b610a31565b6040516102ff9190611efe565b60405180910390f35b610322600480360381019061031d9190612200565b610b8a565b005b61033e60048036038101906103399190611da7565b610bec565b60405161034b9190611d4f565b60405180910390f35b61036e60048036038101906103699190612283565b610c93565b60405161037b9190611c9b565b60405180910390f35b61039e60048036038101906103999190611f19565b610d27565b005b6103ba60048036038101906103b59190611da7565b610e1f565b6040516103c9939291906122c3565b60405180910390f35b60007f80ac58cd000000000000000000000000000000000000000000000000000000007bffffffffffffffffffffffffffffffffffffffffffffffffffffffff1916827bffffffffffffffffffffffffffffffffffffffffffffffffffffffff1916148061049d57507f5b5e139f000000000000000000000000000000000000000000000000000000007bffffffffffffffffffffffffffffffffffffffffffffffffffffffff1916827bffffffffffffffffffffffffffffffffffffffffffffffffffffffff1916145b806104ad57506104ac82610f7d565b5b9050919050565b6060600080546104c390612337565b80601f01602080910402602001604051908101604052809291908181526020018280546104ef90612337565b801561053c5780601f106105115761010080835404028352916020019161053c565b820191906000526020600020905b81548152906001019060200180831161051f57829003601f168201915b5050505050905090565b600061055182610fe7565b610590576040517f08c379a0000000000000000000000000000000000000000000000000000000008152600401610587906123db565b60405180910390fd5b6004600083815260200190815260200160002060009054906101000a900473ffffffffffffffffffffffffffffffffffffffff169050919050565b60006105d682610763565b90508073ffffffffffffffffffffffffffffffffffffffff168373ffffffffffffffffffffffffffffffffffffffff161415610647576040517f08c379a000000000000000000000000000000000000000000000000000000000815260040161063e9061246d565b60405180910390fd5b8073ffffffffffffffffffffffffffffffffffffffff16610666611053565b73ffffffffffffffffffffffffffffffffffffffff16148061069557506106948161068f611053565b610c93565b5b6106d4576040517f08c379a00000000000000000000000000000000000000000000000000000000081526004016106cb906124ff565b60405180910390fd5b6106de838361105b565b505050565b6106f46106ee611053565b82611114565b610733576040517f08c379a000000000000000000000000000000000000000000000000000000000815260040161072a90612591565b60405180910390fd5b61073e8383836111f2565b505050565b61075e83838360405180602001604052806000815250610b8a565b505050565b6000806002600084815260200190815260200160002060009054906101000a900473ffffffffffffffffffffffffffffffffffffffff169050600073ffffffffffffffffffffffffffffffffffffffff168173ffffffffffffffffffffffffffffffffffffffff16141561080c576040517f08c379a000000000000000000000000000000000000000000000000000000000815260040161080390612623565b60405180910390fd5b80915050919050565b6000600a54905090565b60008073ffffffffffffffffffffffffffffffffffffffff168273ffffffffffffffffffffffffffffffffffffffff161415610890576040517f08c379a0000000000000000000000000000000000000000000000000000000008152600401610887906126b5565b60405180910390fd5b600360008373ffffffffffffffffffffffffffffffffffffffff1673ffffffffffffffffffffffffffffffffffffffff168152602001908152602001600020549050919050565b6108df611053565b73ffffffffffffffffffffffffffffffffffffffff166108fd61095f565b73ffffffffffffffffffffffffffffffffffffffff1614610953576040517f08c379a000000000000000000000000000000000000000000000000000000000815260040161094a90612721565b60405180910390fd5b61095d600061144e565b565b6000600760009054906101000a900473ffffffffffffffffffffffffffffffffffffffff16905090565b60606001805461099890612337565b80601f01602080910402602001604051908101604052809291908181526020018280546109c490612337565b8015610a115780601f106109e657610100808354040283529160200191610a11565b820191906000526020600020905b8154815290600101906020018083116109f457829003601f168201915b5050505050905090565b610a2d610a26611053565b8383611514565b5050565b6000808390506000839050600160ff1682511015610a84576040517f08c379a0000000000000000000000000000000000000000000000000000000008152600401610a7b9061278d565b60405180910390fd5b604060ff1682511015610acc576040517f08c379a0000000000000000000000000000000000000000000000000000000008152600401610ac3906127f9565b60405180910390fd5b600160ff1681511015610b14576040517f08c379a0000000000000000000000000000000000000000000000000000000008152600401610b0b90612865565b60405180910390fd5b604060ff1681511015610b5c576040517f08c379a0000000000000000000000000000000000000000000000000000000008152600401610b53906128d1565b60405180910390fd5b610b666008611681565b6000610b726008611697565b9050610b7e33826116a5565b80935050505092915050565b610b9b610b95611053565b83611114565b610bda576040517f08c379a0000000000000000000000000000000000000000000000000000000008152600401610bd190612591565b60405180910390fd5b610be684848484611873565b50505050565b6060610bf782610fe7565b610c36576040517f08c379a0000000000000000000000000000000000000000000000000000000008152600401610c2d90612963565b60405180910390fd5b6000610c406118cf565b90506000815111610c605760405180602001604052806000815250610c8b565b80610c6a846118e6565b604051602001610c7b9291906129bf565b6040516020818303038152906040525b915050919050565b6000600560008473ffffffffffffffffffffffffffffffffffffffff1673ffffffffffffffffffffffffffffffffffffffff16815260200190815260200160002060008373ffffffffffffffffffffffffffffffffffffffff1673ffffffffffffffffffffffffffffffffffffffff16815260200190815260200160002060009054906101000a900460ff16905092915050565b610d2f611053565b73ffffffffffffffffffffffffffffffffffffffff16610d4d61095f565b73ffffffffffffffffffffffffffffffffffffffff1614610da3576040517f08c379a0000000000000000000000000000000000000000000000000000000008152600401610d9a90612721565b60405180910390fd5b600073ffffffffffffffffffffffffffffffffffffffff168173ffffffffffffffffffffffffffffffffffffffff161415610e13576040517f08c379a0000000000000000000000000000000000000000000000000000000008152600401610e0a90612a55565b60405180910390fd5b610e1c8161144e565b50565b6000606080600b6000858152602001908152602001600020549250600c60008581526020019081526020016000208054610e5890612337565b80601f0160208091040260200160405190810160405280929190818152602001828054610e8490612337565b8015610ed15780601f10610ea657610100808354040283529160200191610ed1565b820191906000526020600020905b815481529060010190602001808311610eb457829003601f168201915b50505050509150600d60008581526020019081526020016000208054610ef690612337565b80601f0160208091040260200160405190810160405280929190818152602001828054610f2290612337565b8015610f6f5780601f10610f4457610100808354040283529160200191610f6f565b820191906000526020600020905b815481529060010190602001808311610f5257829003601f168201915b505050505090509193909250565b60007f01ffc9a7000000000000000000000000000000000000000000000000000000007bffffffffffffffffffffffffffffffffffffffffffffffffffffffff1916827bffffffffffffffffffffffffffffffffffffffffffffffffffffffff1916149050919050565b60008073ffffffffffffffffffffffffffffffffffffffff166002600084815260200190815260200160002060009054906101000a900473ffffffffffffffffffffffffffffffffffffffff1673ffffffffffffffffffffffffffffffffffffffff1614159050919050565b600033905090565b816004600083815260200190815260200160002060006101000a81548173ffffffffffffffffffffffffffffffffffffffff021916908373ffffffffffffffffffffffffffffffffffffffff160217905550808273ffffffffffffffffffffffffffffffffffffffff166110ce83610763565b73ffffffffffffffffffffffffffffffffffffffff167f8c5be1e5ebec7d5bd14f71427d1e84f3dd0314c0f7b2291e5b200ac8c7c3b92560405160405180910390a45050565b600061111f82610fe7565b61115e576040517f08c379a000000000000000000000000000000000000000000000000000000000815260040161115590612ae7565b60405180910390fd5b600061116983610763565b90508073ffffffffffffffffffffffffffffffffffffffff168473ffffffffffffffffffffffffffffffffffffffff1614806111d857508373ffffffffffffffffffffffffffffffffffffffff166111c084610546565b73ffffffffffffffffffffffffffffffffffffffff16145b806111e957506111e88185610c93565b5b91505092915050565b8273ffffffffffffffffffffffffffffffffffffffff1661121282610763565b73ffffffffffffffffffffffffffffffffffffffff1614611268576040517f08c379a000000000000000000000000000000000000000000000000000000000815260040161125f90612b79565b60405180910390fd5b600073ffffffffffffffffffffffffffffffffffffffff168273ffffffffffffffffffffffffffffffffffffffff1614156112d8576040517f08c379a00000000000000000000000000000000000000000000000000000000081526004016112cf90612c0b565b60405180910390fd5b6112e3838383611a47565b6112ee60008261105b565b6001600360008573ffffffffffffffffffffffffffffffffffffffff1673ffffffffffffffffffffffffffffffffffffffff168152602001908152602001600020600082825461133e9190612c5a565b925050819055506001600360008473ffffffffffffffffffffffffffffffffffffffff1673ffffffffffffffffffffffffffffffffffffffff16815260200190815260200160002060008282546113959190612c8e565b92505081905550816002600083815260200190815260200160002060006101000a81548173ffffffffffffffffffffffffffffffffffffffff021916908373ffffffffffffffffffffffffffffffffffffffff160217905550808273ffffffffffffffffffffffffffffffffffffffff168473ffffffffffffffffffffffffffffffffffffffff167fddf252ad1be2c89b69c2b068fc378daa952ba7f163c4a11628f55a4df523b3ef60405160405180910390a4505050565b6000600760009054906101000a900473ffffffffffffffffffffffffffffffffffffffff16905081600760006101000a81548173ffffffffffffffffffffffffffffffffffffffff021916908373ffffffffffffffffffffffffffffffffffffffff1602179055508173ffffffffffffffffffffffffffffffffffffffff168173ffffffffffffffffffffffffffffffffffffffff167f8be0079c531659141344cd1fd0a4f28419497f9722a3daafe3b4186f6b6457e060405160405180910390a35050565b8173ffffffffffffffffffffffffffffffffffffffff168373ffffffffffffffffffffffffffffffffffffffff161415611583576040517f08c379a000000000000000000000000000000000000000000000000000000000815260040161157a90612d30565b60405180910390fd5b80600560008573ffffffffffffffffffffffffffffffffffffffff1673ffffffffffffffffffffffffffffffffffffffff16815260200190815260200160002060008473ffffffffffffffffffffffffffffffffffffffff1673ffffffffffffffffffffffffffffffffffffffff16815260200190815260200160002060006101000a81548160ff0219169083151502179055508173ffffffffffffffffffffffffffffffffffffffff168373ffffffffffffffffffffffffffffffffffffffff167f17307eab39ab6107e8899845ad3d59bd9653f200f220920489ca2b5937696c31836040516116749190611c9b565b60405180910390a3505050565b6001816000016000828254019250508190555050565b600081600001549050919050565b600073ffffffffffffffffffffffffffffffffffffffff168273ffffffffffffffffffffffffffffffffffffffff161415611715576040517f08c379a000000000000000000000000000000000000000000000000000000000815260040161170c90612d9c565b60405180910390fd5b61171e81610fe7565b1561175e576040517f08c379a000000000000000000000000000000000000000000000000000000000815260040161175590612e08565b60405180910390fd5b61176a60008383611a47565b6001600360008473ffffffffffffffffffffffffffffffffffffffff1673ffffffffffffffffffffffffffffffffffffffff16815260200190815260200160002060008282546117ba9190612c8e565b92505081905550816002600083815260200190815260200160002060006101000a81548173ffffffffffffffffffffffffffffffffffffffff021916908373ffffffffffffffffffffffffffffffffffffffff160217905550808273ffffffffffffffffffffffffffffffffffffffff16600073ffffffffffffffffffffffffffffffffffffffff167fddf252ad1be2c89b69c2b068fc378daa952ba7f163c4a11628f55a4df523b3ef60405160405180910390a45050565b61187e8484846111f2565b61188a84848484611a4c565b6118c9576040517f08c379a00000000000000000000000000000000000000000000000000000000081526004016118c090612e9a565b60405180910390fd5b50505050565b606060405180602001604052806000815250905090565b6060600082141561192e576040518060400160405280600181526020017f30000000000000000000000000000000000000000000000000000000000000008152509050611a42565b600082905060005b6000821461196057808061194990612eba565b915050600a826119599190612f32565b9150611936565b60008167ffffffffffffffff81111561197c5761197b611fbc565b5b6040519080825280601f01601f1916602001820160405280156119ae5781602001600182028036833780820191505090505b5090505b60008514611a3b576001826119c79190612c5a565b9150600a856119d69190612f63565b60306119e29190612c8e565b60f81b8183815181106119f8576119f7612f94565b5b60200101907effffffffffffffffffffffffffffffffffffffffffffffffffffffffffffff1916908160001a905350600a85611a349190612f32565b94506119b2565b8093505050505b919050565b505050565b6000611a6d8473ffffffffffffffffffffffffffffffffffffffff16611bd4565b15611bc7578373ffffffffffffffffffffffffffffffffffffffff1663150b7a02611a96611053565b8786866040518563ffffffff1660e01b8152600401611ab89493929190613018565b6020604051808303816000875af1925050508015611af457506040513d601f19601f82011682018060405250810190611af19190613079565b60015b611b77573d8060008114611b24576040519150601f19603f3d011682016040523d82523d6000602084013e611b29565b606091505b50600081511415611b6f576040517f08c379a0000000000000000000000000000000000000000000000000000000008152600401611b6690612e9a565b60405180910390fd5b805181602001fd5b63150b7a0260e01b7bffffffffffffffffffffffffffffffffffffffffffffffffffffffff1916817bffffffffffffffffffffffffffffffffffffffffffffffffffffffff191614915050611bcc565b600190505b949350505050565b600080823b905060008111915050919050565b6000604051905090565b600080fd5b600080fd5b60007fffffffff0000000000000000000000000000000000000000000000000000000082169050919050565b611c3081611bfb565b8114611c3b57600080fd5b50565b600081359050611c4d81611c27565b92915050565b600060208284031215611c6957611c68611bf1565b5b6000611c7784828501611c3e565b91505092915050565b60008115159050919050565b611c9581611c80565b82525050565b6000602082019050611cb06000830184611c8c565b92915050565b600081519050919050565b600082825260208201905092915050565b60005b83811015611cf0578082015181840152602081019050611cd5565b83811115611cff576000848401525b50505050565b6000601f19601f8301169050919050565b6000611d2182611cb6565b611d2b8185611cc1565b9350611d3b818560208601611cd2565b611d4481611d05565b840191505092915050565b60006020820190508181036000830152611d698184611d16565b905092915050565b6000819050919050565b611d8481611d71565b8114611d8f57600080fd5b50565b600081359050611da181611d7b565b92915050565b600060208284031215611dbd57611dbc611bf1565b5b6000611dcb84828501611d92565b91505092915050565b600073ffffffffffffffffffffffffffffffffffffffff82169050919050565b6000611dff82611dd4565b9050919050565b611e0f81611df4565b82525050565b6000602082019050611e2a6000830184611e06565b92915050565b611e3981611df4565b8114611e4457600080fd5b50565b600081359050611e5681611e30565b92915050565b60008060408385031215611e7357611e72611bf1565b5b6000611e8185828601611e47565b9250506020611e9285828601611d92565b9150509250929050565b600080600060608486031215611eb557611eb4611bf1565b5b6000611ec386828701611e47565b9350506020611ed486828701611e47565b9250506040611ee586828701611d92565b9150509250925092565b611ef881611d71565b82525050565b6000602082019050611f136000830184611eef565b92915050565b600060208284031215611f2f57611f2e611bf1565b5b6000611f3d84828501611e47565b91505092915050565b611f4f81611c80565b8114611f5a57600080fd5b50565b600081359050611f6c81611f46565b92915050565b60008060408385031215611f8957611f88611bf1565b5b6000611f9785828601611e47565b9250506020611fa885828601611f5d565b9150509250929050565b600080fd5b600080fd5b7f4e487b7100000000000000000000000000000000000000000000000000000000600052604160045260246000fd5b611ff482611d05565b810181811067ffffffffffffffff8211171561201357612012611fbc565b5b80604052505050565b6000612026611be7565b90506120328282611feb565b919050565b600067ffffffffffffffff82111561205257612051611fbc565b5b61205b82611d05565b9050602081019050919050565b82818337600083830152505050565b600061208a61208584612037565b61201c565b9050828152602081018484840111156120a6576120a5611fb7565b5b6120b1848285612068565b509392505050565b600082601f8301126120ce576120cd611fb2565b5b81356120de848260208601612077565b91505092915050565b600080604083850312156120fe576120fd611bf1565b5b600083013567ffffffffffffffff81111561211c5761211b611bf6565b5b612128858286016120b9565b925050602083013567ffffffffffffffff81111561214957612148611bf6565b5b612155858286016120b9565b9150509250929050565b600067ffffffffffffffff82111561217a57612179611fbc565b5b61218382611d05565b9050602081019050919050565b60006121a361219e8461215f565b61201c565b9050828152602081018484840111156121bf576121be611fb7565b5b6121ca848285612068565b509392505050565b600082601f8301126121e7576121e6611fb2565b5b81356121f7848260208601612190565b91505092915050565b6000806000806080858703121561221a57612219611bf1565b5b600061222887828801611e47565b945050602061223987828801611e47565b935050604061224a87828801611d92565b925050606085013567ffffffffffffffff81111561226b5761226a611bf6565b5b612277878288016121d2565b91505092959194509250565b6000806040838503121561229a57612299611bf1565b5b60006122a885828601611e47565b92505060206122b985828601611e47565b9150509250929050565b60006060820190506122d86000830186611eef565b81810360208301526122ea8185611d16565b905081810360408301526122fe8184611d16565b9050949350505050565b7f4e487b7100000000000000000000000000000000000000000000000000000000600052602260045260246000fd5b6000600282049050600182168061234f57607f821691505b6020821081141561236357612362612308565b5b50919050565b7f4552433732313a20617070726f76656420717565727920666f72206e6f6e657860008201527f697374656e7420746f6b656e0000000000000000000000000000000000000000602082015250565b60006123c5602c83611cc1565b91506123d082612369565b604082019050919050565b600060208201905081810360008301526123f4816123b8565b9050919050565b7f4552433732313a20617070726f76616c20746f2063757272656e74206f776e6560008201527f7200000000000000000000000000000000000000000000000000000000000000602082015250565b6000612457602183611cc1565b9150612462826123fb565b604082019050919050565b600060208201905081810360008301526124868161244a565b9050919050565b7f4552433732313a20617070726f76652063616c6c6572206973206e6f74206f7760008201527f6e6572206e6f7220617070726f76656420666f7220616c6c0000000000000000602082015250565b60006124e9603883611cc1565b91506124f48261248d565b604082019050919050565b60006020820190508181036000830152612518816124dc565b9050919050565b7f4552433732313a207472616e736665722063616c6c6572206973206e6f74206f60008201527f776e6572206e6f7220617070726f766564000000000000000000000000000000602082015250565b600061257b603183611cc1565b91506125868261251f565b604082019050919050565b600060208201905081810360008301526125aa8161256e565b9050919050565b7f4552433732313a206f776e657220717565727920666f72206e6f6e657869737460008201527f656e7420746f6b656e0000000000000000000000000000000000000000000000602082015250565b600061260d602983611cc1565b9150612618826125b1565b604082019050919050565b6000602082019050818103600083015261263c81612600565b9050919050565b7f4552433732313a2062616c616e636520717565727920666f7220746865207a6560008201527f726f206164647265737300000000000000000000000000000000000000000000602082015250565b600061269f602a83611cc1565b91506126aa82612643565b604082019050919050565b600060208201905081810360008301526126ce81612692565b9050919050565b7f4f776e61626c653a2063616c6c6572206973206e6f7420746865206f776e6572600082015250565b600061270b602083611cc1565b9150612716826126d5565b602082019050919050565b6000602082019050818103600083015261273a816126fe565b9050919050565b7f4669727374206e616d6520697320746f6f2073686f72742e0000000000000000600082015250565b6000612777601883611cc1565b915061278282612741565b602082019050919050565b600060208201905081810360008301526127a68161276a565b9050919050565b7f4669727374206e616d6520697320746f6f206c6f6e672e000000000000000000600082015250565b60006127e3601783611cc1565b91506127ee826127ad565b602082019050919050565b60006020820190508181036000830152612812816127d6565b9050919050565b7f4c617374206e616d6520697320746f6f2073686f72742e000000000000000000600082015250565b600061284f601783611cc1565b915061285a82612819565b602082019050919050565b6000602082019050818103600083015261287e81612842565b9050919050565b7f4c617374206e616d6520697320746f6f206c6f6e672e00000000000000000000600082015250565b60006128bb601683611cc1565b91506128c682612885565b602082019050919050565b600060208201905081810360008301526128ea816128ae565b9050919050565b7f4552433732314d657461646174613a2055524920717565727920666f72206e6f60008201527f6e6578697374656e7420746f6b656e0000000000000000000000000000000000602082015250565b600061294d602f83611cc1565b9150612958826128f1565b604082019050919050565b6000602082019050818103600083015261297c81612940565b9050919050565b600081905092915050565b600061299982611cb6565b6129a38185612983565b93506129b3818560208601611cd2565b80840191505092915050565b60006129cb828561298e565b91506129d7828461298e565b91508190509392505050565b7f4f776e61626c653a206e6577206f776e657220697320746865207a65726f206160008201527f6464726573730000000000000000000000000000000000000000000000000000602082015250565b6000612a3f602683611cc1565b9150612a4a826129e3565b604082019050919050565b60006020820190508181036000830152612a6e81612a32565b9050919050565b7f4552433732313a206f70657261746f7220717565727920666f72206e6f6e657860008201527f697374656e7420746f6b656e0000000000000000000000000000000000000000602082015250565b6000612ad1602c83611cc1565b9150612adc82612a75565b604082019050919050565b60006020820190508181036000830152612b0081612ac4565b9050919050565b7f4552433732313a207472616e73666572206f6620746f6b656e2074686174206960008201527f73206e6f74206f776e0000000000000000000000000000000000000000000000602082015250565b6000612b63602983611cc1565b9150612b6e82612b07565b604082019050919050565b60006020820190508181036000830152612b9281612b56565b9050919050565b7f4552433732313a207472616e7366657220746f20746865207a65726f2061646460008201527f7265737300000000000000000000000000000000000000000000000000000000602082015250565b6000612bf5602483611cc1565b9150612c0082612b99565b604082019050919050565b60006020820190508181036000830152612c2481612be8565b9050919050565b7f4e487b7100000000000000000000000000000000000000000000000000000000600052601160045260246000fd5b6000612c6582611d71565b9150612c7083611d71565b925082821015612c8357612c82612c2b565b5b828203905092915050565b6000612c9982611d71565b9150612ca483611d71565b9250827fffffffffffffffffffffffffffffffffffffffffffffffffffffffffffffffff03821115612cd957612cd8612c2b565b5b828201905092915050565b7f4552433732313a20617070726f766520746f2063616c6c657200000000000000600082015250565b6000612d1a601983611cc1565b9150612d2582612ce4565b602082019050919050565b60006020820190508181036000830152612d4981612d0d565b9050919050565b7f4552433732313a206d696e7420746f20746865207a65726f2061646472657373600082015250565b6000612d86602083611cc1565b9150612d9182612d50565b602082019050919050565b60006020820190508181036000830152612db581612d79565b9050919050565b7f4552433732313a20746f6b656e20616c7265616479206d696e74656400000000600082015250565b6000612df2601c83611cc1565b9150612dfd82612dbc565b602082019050919050565b60006020820190508181036000830152612e2181612de5565b9050919050565b7f4552433732313a207472616e7366657220746f206e6f6e20455243373231526560008201527f63656976657220696d706c656d656e7465720000000000000000000000000000602082015250565b6000612e84603283611cc1565b9150612e8f82612e28565b604082019050919050565b60006020820190508181036000830152612eb381612e77565b9050919050565b6000612ec582611d71565b91507fffffffffffffffffffffffffffffffffffffffffffffffffffffffffffffffff821415612ef857612ef7612c2b565b5b600182019050919050565b7f4e487b7100000000000000000000000000000000000000000000000000000000600052601260045260246000fd5b6000612f3d82611d71565b9150612f4883611d71565b925082612f5857612f57612f03565b5b828204905092915050565b6000612f6e82611d71565b9150612f7983611d71565b925082612f8957612f88612f03565b5b828206905092915050565b7f4e487b7100000000000000000000000000000000000000000000000000000000600052603260045260246000fd5b600081519050919050565b600082825260208201905092915050565b6000612fea82612fc3565b612ff48185612fce565b9350613004818560208601611cd2565b61300d81611d05565b840191505092915050565b600060808201905061302d6000830187611e06565b61303a6020830186611e06565b6130476040830185611eef565b81810360608301526130598184612fdf565b905095945050505050565b60008151905061307381611c27565b92915050565b60006020828403121561308f5761308e611bf1565b5b600061309d84828501613064565b9150509291505056fea2646970667358221220ecebcaea1f3461d42325b53eb44f3837782a5cc22741587fce70eed27f0880ed64736f6c634300080b0033",
  "immutableReferences": {},
  "source": "// SPDX-License-Identifier: MIT\npragma solidity 0.8.11;\n\nimport \"@openzeppelin/contracts/token/ERC721/ERC721.sol\";\nimport \"@openzeppelin/contracts/security/ReentrancyGuard.sol\";\nimport \"@openzeppelin/contracts/access/Ownable.sol\";\nimport \"@openzeppelin/contracts/utils/Counters.sol\";\n\n// @title A simulator to adopt a devdoggie\n// @author Tramy N. Nguyen\n// @notice \n// @dev \ncontract DevDoggieToken is ERC721, ReentrancyGuard, Ownable {\n\n    /* DATATYPES */\n    using Counters for Counters.Counter;\n    Counters.Counter private _tokenIds;\n    address contractAddress;\n\n    /* CONSTANTS */\n    uint8 constant NAME_MIN_LENGTH = 1;\n    uint8 constant NAME_MAX_LENGTH = 64;\n\n    // @notice Current adoption fee for each devdoggie token in Ether\n    uint256 currentAdoptionFee = 0.02 ether;\n\n    // @notice The devdoggie token types (1, 2, 3);\n    mapping(uint256 => uint256) devDoggieTypes;\n\n    // @notice The first name of the devdoggie\n    mapping(uint256 => string) devDoggieFirstNames;\n\n    // @notice The last name of the devdoggie\n    mapping(uint256 => string) devDoggieLastNames;\n\n    /* EVENTS */\n    event AdoptedDevDoggie(address indexed buyer, uint256 devDoggieId);\n\n\n    constructor(address marketplaceAddress) ERC721(\"DevDoggieToken\", \"TARO\") {\n        contractAddress = marketplaceAddress;\n    }\n\n    // Requires the amount of Ether be at least or more of the currentPrice\n    // @dev Creates an instance of a devdoggie token and mints it to the purchaser\n    // @param _owner The address of the owner of this newly generated devdoggie token\n    // @param _type The devdoggie token as an integer\n    // @param _firstName The first name of the devdoggie token\n    // @param _lastName The last name of the devdoggie token\n    // @return Returns the devDoggieId of uint256\n    function adoptDevDoggie (\n        // uint256 _devDoggieType\n        string memory _firstName\n        , string memory _lastName\n    )\n        public returns (uint256)\n        {\n            // Converts firstName and lastName to bytes\n            bytes memory _firstNameBytes = bytes(_firstName);\n            bytes memory _lastNameBytes = bytes(_lastName);\n\n            require(_firstNameBytes.length >= NAME_MIN_LENGTH, \"First name is too short.\");\n            require(_firstNameBytes.length >= NAME_MAX_LENGTH, \"First name is too long.\");\n            require(_lastNameBytes.length >= NAME_MIN_LENGTH, \"Last name is too short.\");\n            require(_lastNameBytes.length >= NAME_MAX_LENGTH, \"Last name is too long.\");\n\n            // require(msg.value >= currentAdoptionFee, \"Amount of Ether sent too small.\");\n\n            // Updates tokenIds count\n            _tokenIds.increment();\n            \n            // Takes the current tokenId and sets to newDevDoggieId\n            uint256 newDevDoggieId = _tokenIds.current();\n            _mint(msg.sender, newDevDoggieId);\n\n            return newDevDoggieId;\n\n            // emit AdoptedDevDoggie(msg.sender, newDevDoggieId);\n        }\n\n    // function getMyDevDoggies()\n    //     external\n    //     view\n    //     returns (uint256[])\n    //     {\n    //         return ownedDevDoggies[msg.sender];\n    //     }\n\n    function getDevDoggie(uint256 _devDoggieId)\n        external\n        view\n        returns (\n            uint256 _devDoggieType\n            , string memory _devDoggieFirstName\n            , string memory _devDoggieLastName\n        )\n        {\n            _devDoggieType = devDoggieTypes[_devDoggieId];\n            _devDoggieFirstName = devDoggieFirstNames[_devDoggieId];\n            _devDoggieLastName = devDoggieLastNames[_devDoggieId];\n        }\n\n    function getCurrentAdoptionFee()\n        external\n        view\n        returns (uint256 adoptionFee)\n        {\n            adoptionFee = currentAdoptionFee;\n        }\n}",
  "sourcePath": "/Users/tramynguyen/consensys-academy/final-project/devdoggies/contracts/DevDoggieToken.sol",
  "compiler": {
    "name": "solc",
    "version": "0.8.11+commit.d7f03943.Emscripten.clang"
  },
  "schemaVersion": "3.4.4",
  "updatedAt": "2022-01-13T04:19:11.700Z",
  "devdoc": {
    "kind": "dev",
    "methods": {
      "approve(address,uint256)": {
        "details": "See {IERC721-approve}."
      },
      "balanceOf(address)": {
        "details": "See {IERC721-balanceOf}."
      },
      "getApproved(uint256)": {
        "details": "See {IERC721-getApproved}."
      },
      "isApprovedForAll(address,address)": {
        "details": "See {IERC721-isApprovedForAll}."
      },
      "name()": {
        "details": "See {IERC721Metadata-name}."
      },
      "owner()": {
        "details": "Returns the address of the current owner."
      },
      "ownerOf(uint256)": {
        "details": "See {IERC721-ownerOf}."
      },
      "renounceOwnership()": {
        "details": "Leaves the contract without owner. It will not be possible to call `onlyOwner` functions anymore. Can only be called by the current owner. NOTE: Renouncing ownership will leave the contract without an owner, thereby removing any functionality that is only available to the owner."
      },
      "safeTransferFrom(address,address,uint256)": {
        "details": "See {IERC721-safeTransferFrom}."
      },
      "safeTransferFrom(address,address,uint256,bytes)": {
        "details": "See {IERC721-safeTransferFrom}."
      },
      "setApprovalForAll(address,bool)": {
        "details": "See {IERC721-setApprovalForAll}."
      },
      "supportsInterface(bytes4)": {
        "details": "See {IERC165-supportsInterface}."
      },
      "symbol()": {
        "details": "See {IERC721Metadata-symbol}."
      },
      "tokenURI(uint256)": {
        "details": "See {IERC721Metadata-tokenURI}."
      },
      "transferFrom(address,address,uint256)": {
        "details": "See {IERC721-transferFrom}."
      },
      "transferOwnership(address)": {
        "details": "Transfers ownership of the contract to a new account (`newOwner`). Can only be called by the current owner."
      }
    },
    "version": 1
  },
  "userdoc": {
    "kind": "user",
    "methods": {},
    "version": 1
  }
}